S00E00004C61626220352E7372656350
S11300000C942E000C94B2040C941E050C948A05D6
S11300100C94F6050C9462060C944B000C949D0C05
S11300200C944B000C944A0C0C94CE060C943A0796
S11300300C94A6070C9412080C947E080C94EA08FD
S11300400C9456090C94C2090C942E0A0C949A0A26
S11300500C94060B0C94720B0C94DE0B11241FBE33
S1130060CFEFD4E0DEBFCDBF11E0A0E0B1E0E8E621
S1130070F1E202C005900D92AC31B107D9F724E04A
S1130080ACE1B1E001C01D92AF36B207E1F70E94C6
S113009066030C94B2100C940000CF92DF92EF929E
S11300A0FF920F931F93FC01848595858130910500
S11300B041F1828593858130910539F01F910F912B
S11300C0FF90EF90DF90CF90089513861286958766
S11300D0848702891389CC24C394D12C99EBE92E0B
S11300E093E0F92E20E030E0A90160E070E0CB015C
S11300F00E948D0D1F910F91FF90EF90DF90CF9094
S11301000895158614869387828702891389C12CE2
S1130110D12C29EBE22E23E0F22E20E030E0A901DD
S113012060E070E0CB010E948D0DC8CFCF92DF92CA
S1130130EF92FF920F931F93CF93DF93EC01CE8046
S1130140DF800889198981EFE82E82E0F82E20E00B
S113015030E0A90160E070E0CB010E948D0DCC80FD
S1130160DD800889198999EFE92E92E0F92E20E0C3
S113017030E0A90160E070E0CB010E948D0DC884DD
S1130180D9840889198921E0E22E23E0F22E20E0A7
S113019030E0A90160E070E0CB010E948D0DDF9199
S11301A0CF911F910F91FF90EF90DF90CF90089522
S11301B0CF92DF92EF92FF920F931F93CF93DF932F
S11301C0EC0164307105F1F06130710509F18C8541
S11301D09D85892B61F48A859B85892B41F48885CB
S11301E09985892B81F58E819F81892BB9F4CE0164
S11301F0DF91CF911F910F91FF90EF90DF90CF90FF
S11302000C9496008E819F8101969F838E83DFCF0D
S113021088859985019699878887D9CF81E090E070
S11302209B878A870A891B89C12CD12C89EBE82EEC
S113023083E0F82E20E030E0A90160E070E0CB011B
S11302400E948D0DD4CF81E090E09D878C870A8930
S11302501B89CC24C394D12C29EBE22E23E0F22E6B
S113026020E030E0A90160E070E0CB010E948D0D38
S1130270BECFCF92DF92EF92FF920F931F93CF9353
S1130280DF93EC018A859B85019769F18C859D85B7
S1130290019759F0CE01DF91CF911F910F91FF90FB
S11302A0EF90DF90CF900C9496008885998518166E
S11302B0190684F70197998788878C819D81019617
S11302C09D838C83C12CD12C81E9E82E81E0F82E0A
S11302D08E0120E030E0A9016AE572E682E090E058
S11302E00E948D0DD7CF8E819F811816190674F642
S11302F001979F838E838C819D8101969D838C833E
S1130300C12CD12C91E9E92E91E0F92E8E0120E047
S113031030E0A9016AE572E682E090E00E948D0D6A
S1130320B5CFCF92DF92EF92FF920F931F93CF93AB
S1130330DF93EC018C819D81181619062CF42E850F
S11303403F85273031050CF18A859B85019741F162
S11303508C859D85019709F452C08E859F850A97E7
S11303607CF588859985892B29F48E819F81892B39
S113037009F441C0CE01DF91CF911F910F91FF90FD
S1130380EF90DF90CF900C94960001979D838C831F
S11303902F5F3F4F3F872E878A859B850197C1F644
S11303A08E819F81892BA1F6888599851816190657
S11303B07CF6CE010E944D008E859F850A978CF2B3
S11303C01F861E861D861C861B861A860A891B8923
S11303D082E0C82ED12C99EBE92E93E0F92E20E08F
S11303E030E0A90160E070E0CB010E948D0DCE01E8
S11303F00E944D00B6CFCE010E944D00BBCF888530
S11304009985892B61F48E819F81181619068CF2C7
S11304102E853F852A3031050CF4A9CFD1CF8E85A6
S11304209F850A970CF4A6CFCBCFCF93DF93CDB79C
S1130430DEB764970FB6F894DEBF0FBECDBF94E16C
S1130440E8E0F1E0DE01119601900D929A95E1F752
S11304506630710568F5FB01F595E795E451FF4FAA
S1130460A82FB0E0D097AA0FBB1F81E090E08C0FBB
S11304709D1FA80FB91F4D915C9161707727DF0113
S11304805496CA018F70992761307105D1F0EC3E02
S1130490F10519F12081207F822B808335965295B6
S11304A042954F7045275F704527EA17FB0749F7C8
S11304B064960FB6F894DEBF0FBECDBFDF91CF9127
S11304C0089582959295907F9827807F9827EC3E97
S11304D0F10549F020812F70DFCF2091EC00207DC1
S11304E02093EC00D9CF2091EC002D702093EC00E8
S11304F0D3CF8F929F92AF92BF92CF92DF92EF921F
S1130500FF92CF93DF934B015C01EA0124E630E0D4
S113051040E050E00E9430102AE0C22ED12CE12CA1
S1130520F12CA70196010E943010BE0180E3820FD6
S11305300E9415022196C501B401A70196010E94EB
S11305403010862FBE01805DDF91CF91FF90EF9038
S1130550DF90CF90BF90AF909F908F900C94150236
S1130560E5EEF0E08081876B8083E6EEF0E0808149
S113057087608083E7EEF0E080818F608083E4EE23
S1130580F0E08081806C808381E08093F40060E0FF
S113059070E080E30E94150261E070E080E30E9455
S11305A0150262E070E080E30E94150263E070E0EF
S11305B080E30E94150264E070E080E30E9415026B
S11305C065E070E080E30E9415021092C50083E3A9
S11305D08093C40088E98093C10086E08093C200C0
S11305E00895072E000C880B990B40E050E00C9402
S11305F07902072E000C880B990B42E050E00C9412
S11306007902072E000C880B990B44E050E00C94FF
S11306107902CF92DF92EF92FF920F931F93CF93C1
S1130620DF931F92CDB7DEB7FC019091C00097FF16
S1130630FCCF9091C6009983998190FD35C0898142
S113064081FD21C0898183FD1EC0898182FF11C083
S11306500481158184E0C82ED12C98EDE92E90E018
S1130660F92E20E030E0A90160E070E0CB010E94A7
S11306708D0D0F90DF91CF911F910F91FF90EF900F
S1130680DF90CF90089504811581C12CD12C29E3EA
S1130690E22E21E0F22E20E030E0A90160E070E0DB
S11306A0CB010E948D0DE5CF04811581CC24C39428
S11306B0D12C48EDE42E40E0F42E20E030E0A901F6
S11306C060E070E0CB010E948D0DD3CF0F931F9398
S11306D0CF93DF93CDB7DEB7A4970FB6F894DEBF00
S11306E00FBECDBFE1E6F0E080E8808310821AA25D
S11306F019A21CA21BA21C8E1B8E1E8E1D8E18A25C
S11307001F8E1A8219821C821B821E821D821886E9
S11307101F821A8619861C861B861E861D86188AC9
S11307201F868E010F5D1F4F1A8B098BCE014B96CE
S11307309C8B8B8B1E8A1D8A188E1F8A4A979A8FD0
S1130740898F48E069E073E044960E94FA0F40E024
S113075050E060EB72E0C8010E941410A4960FB63A
S1130760F894DEBF0FBECDBFDF91CF911F910F91E3
S11307700895FC016115710569F486E090E09583A4
S113078084839091C00095FFFCCF8093C6001582AE
S1130790148208956130710529F06230710539F0D1
S11307A08481EFCF89E090E095838483EACF8AE067
S11307B090E095838483E5CFCF93DF9300D000D07E
S11307C0CDB7DEB78FE092E02FEE32E0FC017097F8
S11307D091838083409682179307C1F71092E002B9
S11307E01092DF02EAE4F1E087E691E091838083EE
S11307F084E891E0968F858FA1EAB1E0B3AFA2AF10
S11308001D921C92FA83E983EBE4F3E0FC83EB830F
S113081089819A8106960E9471108B819C81E9815D
S1130820FA81978B868B918F808F8FE79FE0948FCF
S1130830838F158214827D96FA83E983EB81FC8190
S1130840E05AFF4FFC83EB8389819A818E5B914050
S1130850F9F6E2EEF1E0118210821582148213821D
S11308601282E1E6F0E080E8808310821092850035
S11308701092840084E08093810081E080936F0073
S11308800F900F900F900F90DF91CF910895CF9319
S1130890DF9300D0CDB7DEB79A83898380910001BE
S11308A09091010106960E947110892B29F00F90F6
S11308B00F90DF91CF91089589819A8190930101DE
S11308C08093000161E070E006960E9491100F93FE
S11308D01F93CF93DF93E0912401F091250130978A
S11308E0F1F080910401909105010097C1F0C0914D
S11308F00201D0910301AA81BB811097A9F046811E
S113090057816085718516960D911D912D913C91AD
S11309101997401B510B620B730B77FD05C0DF91D8
S1130920CF911F910F910895FC0120813181309363
S1130930050120930401D183C08390930301809324
S11309400201DF91CF911F910F910C9447048FEF17
S11309508093EC008093ED008093EE0081E083BFF0
S11309608895FDCF1F920F920FB60F9211242F93EB
S11309703F934F935F936F937F938F939F93AF9323
S1130980BF93EF93FF9320911C0130911D0140917F
S1130990840050918500C901032E000CAA0BBB0BE7
S11309A0DC019927882760E070E0842B952BA62B27
S11309B0B72B80931E0190931F01A0932001B09345
S11309C02101B09B1BC04091840050918500C90156
S11309D00196092E000CAA0BBB0BDC019927882772
S11309E060E070E0842B952BA62BB72B80931E011F
S11309F090931F01A0932001B0932101E091BE01C7
S1130A00F091BF01309739F060E070E080912601E9
S1130A109091270109950E946704FF91EF91BF917E
S1130A20AF919F918F917F916F915F914F913F9182
S1130A302F910F900FBE0F901F9018951F920F9239
S1130A400FB60F9211242F933F934F935F936F939D
S1130A507F938F939F93AF93BF93EF93FF932091D3
S1130A601C0130911D014091840050918500C90101
S1130A70032E000CAA0BBB0BDC019927882760E02E
S1130A8070E0842B952BA62BB72B80931E0190939B
S1130A901F01A0932001B0932101B09B1BC0409182
S1130AA0840050918500C9010196092E000CAA0BFF
S1130AB0BB0BDC019927882760E070E0842B952B21
S1130AC0A62BB72B80931E0190931F01A0932001A6
S1130AD0B0932101E091C001F091C101309739F048
S1130AE061E070E0809128019091290109950E94AC
S1130AF06704FF91EF91BF91AF919F918F917F9187
S1130B006F915F914F913F912F910F900FBE0F9076
S1130B101F9018951F920F920FB60F9211242F93C6
S1130B203F934F935F936F937F938F939F93AF9371
S1130B30BF93EF93FF9320911C0130911D014091CD
S1130B40840050918500C901032E000CAA0BBB0B35
S1130B50DC019927882760E070E0842B952BA62B75
S1130B60B72B80931E0190931F01A0932001B09393
S1130B702101B09B1BC04091840050918500C901A4
S1130B800196092E000CAA0BBB0BDC0199278827C0
S1130B9060E070E0842B952BA62BB72B80931E016D
S1130BA090931F01A0932001B0932101E091C20111
S1130BB0F091C301309739F062E070E080912A012E
S1130BC090912B0109950E946704FF91EF91BF91C9
S1130BD0AF919F918F917F916F915F914F913F91D1
S1130BE02F910F900FBE0F901F9018951F920F9288
S1130BF00FB60F9211242F933F934F935F936F93EC
S1130C007F938F939F93AF93BF93EF93FF93209121
S1130C101C0130911D014091840050918500C9014F
S1130C20032E000CAA0BBB0BDC019927882760E07C
S1130C3070E0842B952BA62BB72B80931E019093E9
S1130C401F01A0932001B0932101B09B1BC04091D0
S1130C50840050918500C9010196092E000CAA0B4D
S1130C60BB0BDC019927882760E070E0842B952B6F
S1130C70A62BB72B80931E0190931F01A0932001F4
S1130C80B0932101E091C401F091C501309739F08E
S1130C9063E070E080912C0190912D0109950E94F0
S1130CA06704FF91EF91BF91AF919F918F917F91D5
S1130CB06F915F914F913F912F910F900FBE0F90C5
S1130CC01F9018951F920F920FB60F9211242F9315
S1130CD03F934F935F936F937F938F939F93AF93C0
S1130CE0BF93EF93FF9320911C0130911D0140911C
S1130CF0840050918500C901032E000CAA0BBB0B84
S1130D00DC019927882760E070E0842B952BA62BC3
S1130D10B72B80931E0190931F01A0932001B093E1
S1130D202101B09B1BC04091840050918500C901F2
S1130D300196092E000CAA0BBB0BDC01992788270E
S1130D4060E070E0842B952BA62BB72B80931E01BB
S1130D5090931F01A0932001B0932101E091C6015B
S1130D60F091C701309739F064E070E080912E0172
S1130D7090912F0109950E946704FF91EF91BF9113
S1130D80AF919F918F917F916F915F914F913F911F
S1130D902F910F900FBE0F901F9018951F920F92D6
S1130DA00FB60F9211242F933F934F935F936F933A
S1130DB07F938F939F93AF93BF93EF93FF93209170
S1130DC01C0130911D014091840050918500C9019E
S1130DD0032E000CAA0BBB0BDC019927882760E0CB
S1130DE070E0842B952BA62BB72B80931E01909338
S1130DF01F01A0932001B0932101B09B1BC040911F
S1130E00840050918500C9010196092E000CAA0B9B
S1130E10BB0BDC019927882760E070E0842B952BBD
S1130E20A62BB72B80931E0190931F01A093200142
S1130E30B0932101E091C801F091C901309739F0D4
S1130E4065E070E0809130019091310109950E9434
S1130E506704FF91EF91BF91AF919F918F917F9123
S1130E606F915F914F913F912F910F900FBE0F9013
S1130E701F9018951F920F920FB60F9211242F9363
S1130E803F934F935F936F937F938F939F93AF930E
S1130E90BF93EF93FF9320911C0130911D0140916A
S1130EA0840050918500C901032E000CAA0BBB0BD2
S1130EB0DC019927882760E070E0842B952BA62B12
S1130EC0B72B80931E0190931F01A0932001B09330
S1130ED02101B09B1BC04091840050918500C90141
S1130EE00196092E000CAA0BBB0BDC01992788275D
S1130EF060E070E0842B952BA62BB72B80931E010A
S1130F0090931F01A0932001B0932101E091CA01A5
S1130F10F091CB01309739F066E070E080913201B6
S1130F209091330109950E946704FF91EF91BF915D
S1130F30AF919F918F917F916F915F914F913F916D
S1130F402F910F900FBE0F901F9018951F920F9224
S1130F500FB60F9211242F933F934F935F936F9388
S1130F607F938F939F93AF93BF93EF93FF932091BE
S1130F701C0130911D014091840050918500C901EC
S1130F80032E000CAA0BBB0BDC019927882760E019
S1130F9070E0842B952BA62BB72B80931E01909386
S1130FA01F01A0932001B0932101B09B1BC040916D
S1130FB0840050918500C9010196092E000CAA0BEA
S1130FC0BB0BDC019927882760E070E0842B952B0C
S1130FD0A62BB72B80931E0190931F01A093200191
S1130FE0B0932101E091CC01F091CD01309739F01B
S1130FF067E070E0809134019091350109950E9479
S11310006704FF91EF91BF91AF919F918F917F9171
S11310106F915F914F913F912F910F900FBE0F9061
S11310201F9018951F920F920FB60F9211242F93B1
S11310303F934F935F936F937F938F939F93AF935C
S1131040BF93EF93FF9320911C0130911D014091B8
S1131050840050918500C901032E000CAA0BBB0B20
S1131060DC019927882760E070E0842B952BA62B60
S1131070B72B80931E0190931F01A0932001B0937E
S11310802101B09B1BC04091840050918500C9018F
S11310900196092E000CAA0BBB0BDC0199278827AB
S11310A060E070E0842B952BA62BB72B80931E0158
S11310B090931F01A0932001B0932101E091CE01F0
S11310C0F091CF01309739F068E070E080913601FB
S11310D09091370109950E946704FF91EF91BF91A8
S11310E0AF919F918F917F916F915F914F913F91BC
S11310F02F910F900FBE0F901F9018951F920F9273
S11311000FB60F9211242F933F934F935F936F93D6
S11311107F938F939F93AF93BF93EF93FF9320910C
S11311201C0130911D014091840050918500C9013A
S1131130032E000CAA0BBB0BDC019927882760E067
S113114070E0842B952BA62BB72B80931E019093D4
S11311501F01A0932001B0932101B09B1BC04091BB
S1131160840050918500C9010196092E000CAA0B38
S1131170BB0BDC019927882760E070E0842B952B5A
S1131180A62BB72B80931E0190931F01A0932001DF
S1131190B0932101E091D001F091D101309739F061
S11311A069E070E0809138019091390109950E94BD
S11311B06704FF91EF91BF91AF919F918F917F91C0
S11311C06F915F914F913F912F910F900FBE0F90B0
S11311D01F9018951F920F920FB60F9211242F9300
S11311E03F934F935F936F937F938F939F93AF93AB
S11311F0BF93EF93FF9320911C0130911D01409107
S1131200840050918500C901032E000CAA0BBB0B6E
S1131210DC019927882760E070E0842B952BA62BAE
S1131220B72B80931E0190931F01A0932001B093CC
S11312302101B09B1BC04091840050918500C901DD
S11312400196092E000CAA0BBB0BDC0199278827F9
S113125060E070E0842B952BA62BB72B80931E01A6
S113126090931F01A0932001B0932101E091D2013A
S1131270F091D301309739F06AE070E080913A013F
S113128090913B0109950E946704FF91EF91BF91F2
S1131290AF919F918F917F916F915F914F913F910A
S11312A02F910F900FBE0F901F9018951F920F92C1
S11312B00FB60F9211242F933F934F935F936F9325
S11312C07F938F939F93AF93BF93EF93FF9320915B
S11312D01C0130911D014091840050918500C90189
S11312E0032E000CAA0BBB0BDC019927882760E0B6
S11312F070E0842B952BA62BB72B80931E01909323
S11313001F01A0932001B0932101B09B1BC0409109
S1131310840050918500C9010196092E000CAA0B86
S1131320BB0BDC019927882760E070E0842B952BA8
S1131330A62BB72B80931E0190931F01A09320012D
S1131340B0932101E091D401F091D501309739F0A7
S11313506BE070E080913C0190913D0109950E9401
S11313606704FF91EF91BF91AF919F918F917F910E
S11313706F915F914F913F912F910F900FBE0F90FE
S11313801F9018951F920F920FB60F9211242F934E
S11313903F934F935F936F937F938F939F93AF93F9
S11313A0BF93EF93FF9320911C0130911D01409155
S11313B0840050918500C901032E000CAA0BBB0BBD
S11313C0DC019927882760E070E0842B952BA62BFD
S11313D0B72B80931E0190931F01A0932001B0931B
S11313E02101B09B1BC04091840050918500C9012C
S11313F00196092E000CAA0BBB0BDC019927882748
S113140060E070E0842B952BA62BB72B80931E01F4
S113141090931F01A0932001B0932101E091D60184
S1131420F091D701309739F06CE070E080913E0183
S113143090913F0109950E946704FF91EF91BF913C
S1131440AF919F918F917F916F915F914F913F9158
S11314502F910F900FBE0F901F9018951F920F920F
S11314600FB60F9211242F933F934F935F936F9373
S11314707F938F939F93AF93BF93EF93FF932091A9
S11314801C0130911D014091840050918500C901D7
S1131490032E000CAA0BBB0BDC019927882760E004
S11314A070E0842B952BA62BB72B80931E01909371
S11314B01F01A0932001B0932101B09B1BC0409158
S11314C0840050918500C9010196092E000CAA0BD5
S11314D0BB0BDC019927882760E070E0842B952BF7
S11314E0A62BB72B80931E0190931F01A09320017C
S11314F0B0932101E091D801F091D901309739F0EE
S11315006DE070E0809140019091410109950E9445
S11315106704FF91EF91BF91AF919F918F917F915C
S11315206F915F914F913F912F910F900FBE0F904C
S11315301F9018951F920F920FB60F9211242F939C
S11315403F934F935F936F937F938F939F93AF9347
S1131550BF93EF93FF9320911C0130911D014091A3
S1131560840050918500C901032E000CAA0BBB0B0B
S1131570DC019927882760E070E0842B952BA62B4B
S1131580B72B80931E0190931F01A0932001B09369
S11315902101B09B1BC04091840050918500C9017A
S11315A00196092E000CAA0BBB0BDC019927882796
S11315B060E070E0842B952BA62BB72B80931E0143
S11315C090931F01A0932001B0932101E091DA01CF
S11315D0F091DB01309739F06EE070E080914201C8
S11315E09091430109950E946704FF91EF91BF9187
S11315F0AF919F918F917F916F915F914F913F91A7
S11316002F910F900FBE0F901F9018951F920F925D
S11316100FB60F9211242F933F934F935F936F93C1
S11316207F938F939F93AF93BF93EF93FF932091F7
S11316301C0130911D014091840050918500C90125
S1131640032E000CAA0BBB0BDC019927882760E052
S113165070E0842B952BA62BB72B80931E019093BF
S11316601F01A0932001B0932101B09B1BC04091A6
S1131670840050918500C9010196092E000CAA0B23
S1131680BB0BDC019927882760E070E0842B952B45
S1131690A62BB72B80931E0190931F01A0932001CA
S11316A0B0932101E091DC01F091DD01309739F034
S11316B06FE070E0809144019091450109950E948A
S11316C06704FF91EF91BF91AF919F918F917F91AB
S11316D06F915F914F913F912F910F900FBE0F909B
S11316E01F9018951F920F920FB60F9211242F93EB
S11316F03F934F935F936F937F938F939F93AF9396
S1131700BF93EF93FF9320911C0130911D014091F1
S1131710840050918500C901032E000CAA0BBB0B59
S1131720DC019927882760E070E0842B952BA62B99
S1131730B72B80931E0190931F01A0932001B093B7
S11317402101B09B1BC04091840050918500C901C8
S11317500196092E000CAA0BBB0BDC0199278827E4
S113176060E070E0842B952BA62BB72B80931E0191
S113177090931F01A0932001B0932101E091DE0119
S1131780F091DF01309739F060E170E0809146011B
S11317909091470109950E946704FF91EF91BF91D1
S11317A0AF919F918F917F916F915F914F913F91F5
S11317B02F910F900FBE0F901F9018951F920F92AC
S11317C00FB60F9211242F933F934F935F936F9310
S11317D07F938F939F93AF93BF93EF93FF93209146
S11317E01C0130911D014091840050918500C90174
S11317F0032E000CAA0BBB0BDC019927882760E0A1
S113180070E0842B952BA62BB72B80931E0190930D
S11318101F01A0932001B0932101B09B1BC04091F4
S1131820840050918500C9010196092E000CAA0B71
S1131830BB0BDC019927882760E070E0842B952B93
S1131840A62BB72B80931E0190931F01A093200118
S1131850B0932101E091E001F091E101309739F07A
S113186061E170E0809148019091490109950E94DD
S11318706704FF91EF91BF91AF919F918F917F91F9
S11318806F915F914F913F912F910F900FBE0F90E9
S11318901F9018951F920F920FB60F9211242F9339
S11318A03F934F935F936F937F938F939F93EF93A4
S11318B0FF9380911C0190911D01019690931D014D
S11318C080931C01E0912201F0912301309739F0BB
S11318D0428153816481758186179707A1F08091B5
S11318E06F008D7F80936F00FF91EF919F918F9197
S11318F07F916F915F914F913F912F910F900FBE08
S11319000F901F901895CA01209184003091850092
S1131910421B530B4130510551F090938900809341
S1131920880080916F00826080936F00DDCF80918A
S11319308400909185000196F0CF1F920F920FB60C
S11319400F9211248F929F92AF92BF92CF92DF9207
S1131950EF92FF920F931F932F933F934F935F93B5
S11319606F937F938F939F93AF93BF93CF93DF93A3
S1131970EF93FF93E0901C01F0901D01809184008F
S113198090918500B09998C047010F2C000CAA08CB
S1131990BB08540199248824A0E0B0E0882A992A3D
S11319A0AA2ABB2AC0912201D0912301809124014B
S11319B090912501209709F43FC04A815B816C8195
S11319C07D818A019B01081919092A093B0910160E
S11319D01106120613060CF440C0D880C980009783
S11319E0B9F10E811F8128853985FC014681578113
S11319F06085718504171507260737074CF1DC014C
S1131A000AC046815781608571850417150726072A
S1131A103707DCF0DF01ED91FC911197309789F7DE
S1131A2019821882CD93DC93382F292FCD2DDC2DEC
S1131A30832F922F209709F61092230110922201EE
S1131A40909325018093240113C0F983E883EACF9E
S1131A50998388833C2F2D2FE9CFD0932301C09302
S1131A6022019093250180932401E616F706D9F10B
S1131A7080916F008D7F80936F000E946704FF91B7
S1131A80EF91DF91CF91BF91AF919F918F917F9112
S1131A906F915F914F913F912F911F910F91FF9003
S1131AA0EF90DF90CF90BF90AF909F908F900F906A
S1131AB00FBE0F901F9018952091840030918500DF
S1131AC047018FEF881A980A092C000CAA08BB0852
S1131AD0D401992788274901A12CB12C882A992A55
S1131AE0AA2ABB2A5FCFCA012091840030918500C5
S1131AF0421B530B4130510551F090938900809360
S1131B00880080916F00826080936F00B6CF8091CF
S1131B108400909185000196F0CF3F924F925F929E
S1131B206F927F928F929F92AF92BF92CF92DF92E9
S1131B30EF92FF920F931F93CF93DF93EFB7E07869
S1131B403E2EF894C0910601D0910701209709F424
S1131B5052C1E881F981F0930701E09306011B87E4
S1131B600A87FD86EC86DF86CE86332009F46FC0B3
S1131B70E0910001F09101010280F381E02DC28027
S1131B80D380E480F580C60ED71EE81EF91ECA82F3
S1131B90DB82EC82FD8212161306140615060CF085
S1131BA0F8C0DA01C9018C019D010C0D1D1D2E1D0B
S1131BB03F1D0E831F832887398780911C019091D4
S1131BC01D016091840070918500B09949C02C0179
S1131BD0092E000C660877085201992488242B01E9
S1131BE0612C712C482859286A287B28B701A60142
S1131BF044195509660977091416150616061706B9
S1131C000CF068C0A0912201B0912301109709F44F
S1131C10DCC012960D911D912D913C911597C01623
S1131C20D106E206F3065CF4D0C04281538164819C
S1131C307581C416D506E606F7064CF1DF01ED9171
S1131C40FC911197309789F71982188222C0C090AD
S1131C501E01D0901F01E0902001F090210193CF4C
S1131C60E0918400F09185002C014FEF441A540A4E
S1131C70052C000C66087708B201552744272F016C
S1131C80612C712C442A552A662A772AAFCFF9830E
S1131C90E883CD93DC938217930709F47FC0809186
S1131CA06F008D7F80936F00332009F07894CE010C
S1131CB0DF91CF911F910F91FF90EF90DF90CF9024
S1131CC0BF90AF909F908F907F906F905F904F9058
S1131CD03F900895A0912401B0912501109709F433
S1131CE083C01696CD90DD90ED90FC9019970C155D
S1131CF01D052E053F0564F477C0C680D780E084B7
S1131D00F1840C151D052E053F050CF45BC0DF01A5
S1131D10ED91FC911197309781F719821882CD9338
S1131D20DC93332021F28091040190910501009706
S1131D3009F4BCCFE0910201F09103012091240148
S1131D403091250102811381D90116964D915D913F
S1131D506D917C911997D80116960D911D912D9135
S1131D603C911997401B510B620B730B77FF9ECF6D
S1131D70DC012D913C9111973093050120930401CE
S1131D80ED93FC9390930301809302010E94470416
S1131D908DCF8FEF9FEFAFEFBFE705CFC801409125
S1131DA0840050918500041B150B01301105B1F01E
S1131DB0909389008093880080916F008260809363
S1131DC06F0072CFF983E883AACFB983A883D09335
S1131DD02301C0932201970186015DCF8091840085
S1131DE0909185000196E4CFB983A883D09325010F
S1131DF0C093240196CF0E94A704CF92DF92EF9262
S1131E00FF920F931F93CF93DF93EC017B016A0141
S1131E101FB71078F894A881B981109719F462C09B
S1131E20A081B1811496ED91FC9115973097C1F77B
S1131E3020910001309101012A173B0709F44CC09D
S1131E401123A1F18A819B81009719F0FC0115826D
S1131E5014823B832A83F901D583C483CD010E9474
S1131E604704E0910001F091010182819381892B63
S1131E7009F441C0F983E8838A819B81019709F0C1
S1131E807894B601CE01F7010995F82E092F8FB782
S1131E90F894198218828A819B8182309105A0F47A
S1131EA0112379F078948F2D902F02C08FEF9FEF3C
S1131EB0DF91CF911F910F91FF90EF90DF90CF9022
S1131EC008958F2D902FF4CF1B821A82FC01158266
S1131ED014820E944704E4CF112341F378948FEFD6
S1131EE09FEFE6CF8091000190910101998388834F
S1131EF0112339F2C1CF789480E090E0D9CFC0911A
S1131F002401D0912501E0910001F0910101209775
S1131F1009F46EC0888199819093250180932401EE
S1131F20D383C28378944E855F856C857D858A854D
S1131F309B850E94FD0E8FB7F894809106019091C5
S1131F40070199838883D0930701C0930601E09029
S1131F500201F0900301F701A081B18112968D91E5
S1131F609C911397C0912401D09125012097A9F049
S1131F70009749F24E815F8168857985FC0106816D
S1131F80178120853185401B510B620B730B14168E
S1131F901506160617060CF0B6CFB0930301A093EE
S1131FA002018091040190910501F70191838083DE
S1131FB0F0920501E09204011496ED91FC911597BD
S1131FC0309741F0A081B1811496ED91FC91159761
S1131FD03097C1F7CD010E944704C0912401D091EC
S1131FE02501E0910001F0910101209709F092CFC1
S1131FF00E94A7044231B8F42FB7F89450E0440F7C
S1132000551FFA01EA5DFE4F91838083FA01E25481
S1132010FE4F7183608341E050E0FC0153834283AF
S113202027FF01C0789408958C017B016A018FB762
S1132030F8940E94DC037894E114F10441F020E068
S113204030E0A90160E070E0CB010E948D0D8FB7F4
S1132050F8940E946704789481E083BF8895FDCF4B
S1132060052E97FB1EF400940E94471057FD07D0DD
S11320700E944F1007FC03D04EF40C944710509567
S11320804095309521953F4F4F4F5F4F0895909560
S11320908095709561957F4F8F4F9F4F0895A1E272
S11320A01A2EAA1BBB1BFD010DC0AA1FBB1FEE1FCE
S11320B0FF1FA217B307E407F50720F0A21BB30B19
S11320C0E40BF50B661F771F881F991F1A9469F795
S11320D060957095809590959B01AC01BD01CF01F1
S11320E00895DC012D923D924D925D926D927D9208
S11320F08D929D92AD92BD92CD92DD92ED92FD9224
S11321000D931D93CD93DD93FF91EF918DB78D9337
S11321108EB78D938FB78D93ED93FD938827992771
S11321200994DC01CB0181309105811D2D903D90F6
S11321304D905D906D907D908D909D90AD90BD90F3
S1132140CD90DD90ED90FD900D911D91CD91DD919F
S1132150ED91FD910D90F894FEBF0FBEEDBFED9192
S10B2160FD910994F894FFCFEE
S1132168E201E2014A01FF0151151001111E111B80
S10F2178500B411B411F1101511F510B62
S9030000FC
