:100000000C942E000C94FD040C946C050C94DB05F0
:100010000C944A060C94B9060C944B000C94240DD5
:100020000C944B000C94D20C0C9428070C9497075A
:100030000C9406080C9475080C94E4080C9453096D
:100040000C94C2090C94310A0C94A00A0C940F0B66
:100050000C947E0B0C94ED0B0C945C0C11241FBEC5
:10006000CFEFD4E0DEBFCDBF11E0A0E0B1E0EAEB1E
:10007000F0E202C005900D92AC31B107D9F724E04F
:10008000ACE1B1E001C01D92AF36B207E1F70E94CA
:10009000FE020C945B100C940000FC01848195819D
:1000A0001816190644F401979583848386859785ED
:1000B000019697878687089521E030E0FC01338719
:1000C0002287089521E030E0FC01358724870895D8
:1000D000CF92DF92EF92FF920F931F93CF93DF9314
:1000E000EC0188859985892BC9F48E819F81892BA4
:1000F000A9F40A891B896894CC24C1F8D12C0F2E4D
:10010000F6E5EF2EF3E0FF2EF02D20E030E0A90120
:1001100060E070E0CB010E94C40D54C08A859B85CD
:10012000892B29F11B861A86C12CD12C0F2EF2E6C1
:10013000EF2EF0E0FF2EF02D8E0120E030E0A9013F
:100140006AE572E682E090E00E94C40D0A891B898C
:100150000F2EF6E5EF2EF3E0FF2EF02D20E030E03D
:10016000A90160E070E0CB010E94C40D2BC08C851A
:100170009D85892B39F11D861C86C12CD12C0F2E13
:10018000FCE5EF2EF0E0FF2EF02D8E0120E030E0B8
:10019000A9016AE572E682E090E00E94C40D0A8936
:1001A0001B89CC24C394D12C0F2EF6E5EF2EF3E05F
:1001B000FF2EF02D20E030E0A90160E070E0CB01DF
:1001C0000E94C40DDF91CF911F910F91FF90EF908E
:1001D000DF90CF900895CF92DF92EF92FF920F932E
:1001E0001F93CF93DF93EC0108891989CE80DF80BC
:1001F0000F2EF2EAEF2EF2E0FF2EF02D20E030E09D
:10020000A90160E070E0CB010E94C40D0889198942
:10021000CC80DD800F2EFBEAEF2EF2E0FF2EF02DDA
:1002200020E030E0A90160E070E0CB010E94C40D45
:1002300008891989C884D9840F2EF4EBEF2EF2E0D7
:10024000FF2EF02D20E030E0A90160E070E0CB014E
:100250000E94C40DDF91CF911F910F91FF90EF90FD
:10026000DF90CF900895CF92DF92EF92FF920F939D
:100270001F93CF93DF93EC018A859B85019771F5DE
:100280008E819F81181619064CF501979F838E83E6
:100290008C819D8101969D838C83C12CD12C0F2E46
:1002A000FDE4EF2EF0E0FF2EF02D8E0120E030E097
:1002B000A9016AE572E682E090E00E94C40D8E8595
:1002C0009F850597E4F18885998518161906BCF570
:1002D0001F861E86CE010E94680031C08C859D85D8
:1002E000019769F5888599851816190644F50197CF
:1002F000998788878C819D8101969D838C83C12CF1
:10030000D12C0F2EFDE4EF2EF0E0FF2EF02D8E010C
:1003100020E030E0A9016AE572E682E090E00E9408
:10032000C40D8E859F85059754F08E819F81181688
:1003300019062CF41F861E86CE010E946800CE018D
:100340000E94EB00DF91CF911F910F91FF90EF90F2
:10035000DF90CF9008956430710541F4FC0126814F
:1003600037812F5F3F4F37832683089561307105B2
:1003700041F4FC01208531852F5F3F4F3187208775
:1003800008956130710511F40E9433010895CF93EF
:10039000DF93CDB7DEB764970FB6F894DEBF0FBE1C
:1003A000CDBF94E1E8E0F1E0DE01119601900D92FD
:1003B0009A95E1F76630710508F054C0FB01772388
:1003C0000CF43196F595E795E451FF4FA82FB0E076
:1003D000D097AA0FBB1F81E090E08C0F9D1FA80F44
:1003E000B91F0D90BC91A02D40E050E038C0CD0168
:1003F0008F7099279B0121703078332334F421507A
:1004000031092E6F3F6F2F5F3F4F2130310589F447
:1004100082959295907F9827807F9827EC3EF105F2
:1004200021F420812D7020830EC020812F70208325
:100430000AC0EC3EF10521F42081207D208303C019
:100440002081207F20839081892B80833596B295EF
:10045000A295AF70AB27BF70AB274F5F5F4F4430A3
:1004600051052CF264960FB6F894DEBF0FBECDBFD7
:10047000DF91CF9108958F929F92AF92BF92CF92CA
:10048000DF92EF92FF92CF93DF934B015C01EA0181
:1004900024E630E040E050E00E94D90F0F2EFAE051
:1004A000CF2ED12CE12CF12CF02DA70196010E942A
:1004B000D90FBE0180E3820F0E94C7012196C501BA
:1004C000B401A70196010E94D90F862FBE01805D5D
:1004D0000E94C701DF91CF91FF90EF90DF90CF9006
:1004E000BF90AF909F908F900895E5EEF0E08081EF
:1004F000876B8083E6EEF0E0808187608083E7EEA3
:10050000F0E080818F608083E4EEF0E08081806C99
:10051000808381E08093F40040E050E060E070E090
:10052000CB010E943B0242E050E060E070E0CB0172
:100530000E943B0244E050E060E070E0CB010E948A
:100540003B020895072E000C880B990B40E050E009
:100550000E943B020895072E000C880B990B42E085
:1005600050E00E943B020895072E000C880B990B67
:1005700044E050E00E943B0208959093C5008093B0
:10058000C40088E98093C10086E08093C20008958A
:10059000CF92DF92EF92FF920F931F939C01909165
:1005A000C0009923E4F78091C600843061F0809107
:1005B000C600813041F08091C600883021F08091E2
:1005C000C6008230A1F4F901C090C600D12C04818C
:1005D00015810F2EFBEAEF2EF1E0FF2EF02D20E02B
:1005E00030E0A90160E070E0CB010E94C40D1F91D2
:1005F0000F91FF90EF90DF90CF9008950F931F938E
:10060000CF93DF93CDB7DEB7A4970FB6F894DEBFD4
:100610000FBECDBFE1E6F0E080E8808310821A8251
:1006200019821C821B821E821D8218861F821A86D6
:1006300019861C861B861E861D86188A1F861A8AA6
:10064000198A1C8A1B8A1E8A1D8A188E1F8A1A8E76
:10065000198E8E010F5F1F4F1C8F0B8FCE010596D9
:100660009E8F8D8F18A21F8E1AA219A206969CA388
:100670008BA383E390E00E94BD0248E068EC72E047
:10068000CE014F960E94A70F40E050E065E772E070
:10069000C8010E94C20FA4960FB6F894DEBF0FBE29
:1006A000CDBFDF91CF911F910F910895FC0161158E
:1006B000710529F489E090E0958384830CC0613052
:1006C000710529F486E090E09583848304C08AE074
:1006D00090E0958384839091C00095FFFCCF848146
:1006E0008093C6000895CF93DF9300D000D0CDB79C
:1006F000DEB780E090E018C0AC014F5F5F4F9A0119
:1007000022953295307F3227207F322721503E4F6D
:1007100082959295907F9827807F9827FC01E150E1
:10072000FE4F31832083CA018E3091052CF3109245
:10073000E0021092DF0280E090E015C0AC014F5F54
:100740005F4F6DE1649F9001659F300D1124265B22
:100750003E4F689FF001699FF00D1124E65BFE4F4C
:1007600031832083CA018330910544F31092A201A2
:100770001092A1011A82198232C02DE149815A8159
:10078000249FC001259F900D1124FC01E05BFE4FCA
:10079000FC83EB83CF010E941A1020E649815A8125
:1007A000249FC001259F900D1124855B9C4FEB81F8
:1007B000FC81918B808B938B828B8FE49FE0968B57
:1007C000858B8DE1849FF001859FF00D1124E65B00
:1007D000FE4F158214824F5F5F4F5A8349832981F0
:1007E0003A81243031054CF2E2EEF1E011821082C0
:1007F0001582148213821282E1E6F0E080E88083A1
:100800001082109285001092840084E08093810011
:1008100081E080936F000F900F900F900F90DF9109
:10082000CF910895CF93DF9300D0CDB7DEB79A83F1
:100830008983809100019091010106960E941A100F
:10084000892B59F489819A81909301018093000149
:1008500061E070E006960E943A100F900F90DF91D1
:10086000CF9108950F931F93CF93DF93DC01CB01BA
:10087000EB01E881F981C0E0D0E004C0EF01019014
:10088000F081E02D309779F0068117812085318540
:1008900016964D915D916D917C9119974017510776
:1008A000620773075CF71196FC93EE93209721F48F
:1008B000FC01B183A08302C0B983A883DF91CF91EB
:1008C0001F910F9108950F931F93CF93DF93DC0136
:1008D000CB01EB01E881F981C0E0D0E004C0EF0179
:1008E0000190F081E02D309779F00281138124810D
:1008F000358112964D915D916D917C9115974017C0
:100900005107620773075CF71196FC93EE932097EB
:1009100021F4FC01B183A08302C0B983A883DF91D5
:10092000CF911F910F910895DC01ED91FC911197EA
:10093000309759F48FEF8093EC008093ED00809313
:10094000EE0081E083BF8895FCCF208131812D931B
:100950003C93CF010895FB0120813181FC0131835B
:100960002083FB01918380830895FB0120813181E5
:10097000FC0131832083FB01918380830895DC0196
:10098000ED91FC911197208131812D933C93CF0102
:100990000895CF93DF93E0910201F0910301C281AA
:1009A000D381E0912401F0912501309719F18091D4
:1009B000040190910501892BE9F0209769F0868167
:1009C0009781A085B1854E815F8168857985841B7B
:1009D000950BA60BB70B72F484E091E00E94BF0464
:1009E00062E071E00E94B5048091020190910301E0
:1009F0000E941204DF91CF9108951F920F920FB6BB
:100A00000F9211240F931F932F933F934F935F9354
:100A10006F937F938F939F93AF93BF93EF93FF93C6
:100A200080911C0190911D01AC01092E000C660BF8
:100A3000770B9A011127002740918400509185007F
:100A400060E070E0402B512B622B732B40931E0112
:100A500050931F016093200170932101B09B1AC035
:100A60000196092E000CAA0BBB0BBC01552744278D
:100A70008091840090918500A0E0B0E0842B952BBC
:100A8000A62BB72B80931E0190931F01A0932001EA
:100A9000B0932101E091BE01F091BF01309739F090
:100AA00060E070E0809126019091270109950E94F5
:100AB000C904FF91EF91BF91AF919F918F917F9169
:100AC0006F915F914F913F912F911F910F910F90D7
:100AD0000FBE0F901F9018951F920F920FB60F9296
:100AE00011240F931F932F933F934F935F936F9313
:100AF0007F938F939F93AF93BF93EF93FF938091D7
:100B00001C0190911D01AC01092E000C660B770BA6
:100B10009A0111270027409184005091850060E0E0
:100B200070E0402B512B622B732B40931E0150938E
:100B30001F016093200170932101B09B1AC00196A0
:100B4000092E000CAA0BBB0BBC0155274427809132
:100B5000840090918500A0E0B0E0842B952BA62B1B
:100B6000B72B80931E0190931F01A0932001B09397
:100B70002101E091C001F091C101309739F061E0AD
:100B800070E0809128019091290109950E94C90483
:100B9000FF91EF91BF91AF919F918F917F916F9155
:100BA0005F914F913F912F911F910F910F900FBE29
:100BB0000F901F9018951F920F920FB60F9211244D
:100BC0000F931F932F933F934F935F936F937F9355
:100BD0008F939F93AF93BF93EF93FF9380911C01EB
:100BE00090911D01AC01092E000C660B770B9A0148
:100BF00011270027409184005091850060E070E04B
:100C0000402B512B622B732B40931E0150931F01DD
:100C10006093200170932101B09B1AC00196092EA8
:100C2000000CAA0BBB0BBC01552744278091840004
:100C300090918500A0E0B0E0842B952BA62BB72BDC
:100C400080931E0190931F01A0932001B093210176
:100C5000E091C201F091C301309739F062E070E099
:100C600080912A0190912B0109950E94C904FF915E
:100C7000EF91BF91AF919F918F917F916F915F9114
:100C80004F913F912F911F910F910F900FBE0F9099
:100C90001F9018951F920F920FB60F9211240F9369
:100CA0001F932F933F934F935F936F937F938F93F4
:100CB0009F93AF93BF93EF93FF9380911C0190910B
:100CC0001D01AC01092E000C660B770B9A01112750
:100CD0000027409184005091850060E070E0402B37
:100CE000512B622B732B40931E0150931F01609375
:100CF000200170932101B09B1AC00196092E000CAF
:100D0000AA0BBB0BBC01552744278091840090910E
:100D10008500A0E0B0E0842B952BA62BB72B809309
:100D20001E0190931F01A0932001B0932101E09137
:100D3000C401F091C501309739F063E070E0809113
:100D40002C0190912D0109950E94C904FF91EF910A
:100D5000BF91AF919F918F917F916F915F914F91D3
:100D60003F912F911F910F910F900FBE0F901F90E9
:100D700018951F920F920FB60F9211240F931F9385
:100D80002F933F934F935F936F937F938F939F9393
:100D9000AF93BF93EF93FF9380911C0190911D013E
:100DA000AC01092E000C660B770B9A011127002766
:100DB000409184005091850060E070E0402B512B01
:100DC000622B732B40931E0150931F0160932001EF
:100DD00070932101B09B1AC00196092E000CAA0B3A
:100DE000BB0BBC015527442780918400909185005E
:100DF000A0E0B0E0842B952BA62BB72B80931E018F
:100E000090931F01A0932001B0932101E091C601AE
:100E1000F091C701309739F064E070E080912E01C5
:100E200090912F0109950E94C904FF91EF91BF9104
:100E3000AF919F918F917F916F915F914F913F9172
:100E40002F911F910F910F900FBE0F901F9018952B
:100E50001F920F920FB60F9211240F931F932F938F
:100E60003F934F935F936F937F938F939F93AF9332
:100E7000BF93EF93FF9380911C0190911D01AC01F2
:100E8000092E000C660B770B9A0111270027409161
:100E900084005091850060E070E0402B512B622B64
:100EA000732B40931E0150931F0160932001709398
:100EB0002101B09B1AC00196092E000CAA0BBB0B96
:100EC000BC01552744278091840090918500A0E0C3
:100ED000B0E0842B952BA62BB72B80931E0190930B
:100EE0001F01A0932001B0932101E091C801F0916E
:100EF000C901309739F065E070E080913001909140
:100F0000310109950E94C904FF91EF91BF91AF9102
:100F10009F918F917F916F915F914F913F912F9111
:100F20001F910F910F900FBE0F901F9018951F9259
:100F30000F920FB60F9211240F931F932F933F938D
:100F40004F935F936F937F938F939F93AF93BF93D1
:100F5000EF93FF9380911C0190911D01AC01092E2C
:100F6000000C660B770B9A01112700274091840033
:100F70005091850060E070E0402B512B622B732B69
:100F800040931E0150931F01609320017093210133
:100F9000B09B1AC00196092E000CAA0BBB0BBC011A
:100FA000552744278091840090918500A0E0B0E00F
:100FB000842B952BA62BB72B80931E0190931F019A
:100FC000A0932001B0932101E091CA01F091CB01DF
:100FD000309739F066E070E08091320190913301F2
:100FE00009950E94C904FF91EF91BF91AF919F9124
:100FF0008F917F916F915F914F913F912F911F91B1
:101000000F910F900FBE0F901F9018951F920F9287
:101010000FB60F9211240F931F932F933F934F936B
:101020005F936F937F938F939F93AF93BF93EF9350
:10103000FF9380911C0190911D01AC01092E000CC1
:10104000660B770B9A01112700274091840050917D
:10105000850060E070E0402B512B622B732B409396
:101060001E0150931F016093200170932101B09BDA
:101070001AC00196092E000CAA0BBB0BBC01552708
:1010800044278091840090918500A0E0B0E0842BFB
:10109000952BA62BB72B80931E0190931F01A09335
:1010A0002001B0932101E091CC01F091CD01309766
:1010B00039F067E070E08091340190913501099535
:1010C0000E94C904FF91EF91BF91AF919F918F91C1
:1010D0007F916F915F914F913F912F911F910F9150
:1010E0000F900FBE0F901F9018951F920F920FB682
:1010F0000F9211240F931F932F933F934F935F935E
:101100006F937F938F939F93AF93BF93EF93FF93CF
:1011100080911C0190911D01AC01092E000C660B01
:10112000770B9A0111270027409184005091850088
:1011300060E070E0402B512B622B732B40931E011B
:1011400050931F016093200170932101B09B1AC03E
:101150000196092E000CAA0BBB0BBC015527442796
:101160008091840090918500A0E0B0E0842B952BC5
:10117000A62BB72B80931E0190931F01A0932001F3
:10118000B0932101E091CE01F091CF01309739F079
:1011900068E070E0809136019091370109950E94D6
:1011A000C904FF91EF91BF91AF919F918F917F9172
:1011B0006F915F914F913F912F911F910F910F90E0
:1011C0000FBE0F901F9018951F920F920FB60F929F
:1011D00011240F931F932F933F934F935F936F931C
:1011E0007F938F939F93AF93BF93EF93FF938091E0
:1011F0001C0190911D01AC01092E000C660B770BB0
:101200009A0111270027409184005091850060E0E9
:1012100070E0402B512B622B732B40931E01509397
:101220001F016093200170932101B09B1AC00196A9
:10123000092E000CAA0BBB0BBC015527442780913B
:10124000840090918500A0E0B0E0842B952BA62B24
:10125000B72B80931E0190931F01A0932001B093A0
:101260002101E091D001F091D101309739F069E08E
:1012700070E0809138019091390109950E94C9046C
:10128000FF91EF91BF91AF919F918F917F916F915E
:101290005F914F913F912F911F910F910F900FBE32
:1012A0000F901F9018951F920F920FB60F92112456
:1012B0000F931F932F933F934F935F936F937F935E
:1012C0008F939F93AF93BF93EF93FF9380911C01F4
:1012D00090911D01AC01092E000C660B770B9A0151
:1012E00011270027409184005091850060E070E054
:1012F000402B512B622B732B40931E0150931F01E7
:101300006093200170932101B09B1AC00196092EB1
:10131000000CAA0BBB0BBC0155274427809184000D
:1013200090918500A0E0B0E0842B952BA62BB72BE5
:1013300080931E0190931F01A0932001B09321017F
:10134000E091D201F091D301309739F06AE070E07A
:1013500080913A0190913B0109950E94C904FF9147
:10136000EF91BF91AF919F918F917F916F915F911D
:101370004F913F912F911F910F910F900FBE0F90A2
:101380001F9018951F920F920FB60F9211240F9372
:101390001F932F933F934F935F936F937F938F93FD
:1013A0009F93AF93BF93EF93FF9380911C01909114
:1013B0001D01AC01092E000C660B770B9A01112759
:1013C0000027409184005091850060E070E0402B40
:1013D000512B622B732B40931E0150931F0160937E
:1013E000200170932101B09B1AC00196092E000CB8
:1013F000AA0BBB0BBC015527442780918400909118
:101400008500A0E0B0E0842B952BA62BB72B809312
:101410001E0190931F01A0932001B0932101E09140
:10142000D401F091D501309739F06BE070E08091F4
:101430003C0190913D0109950E94C904FF91EF91F3
:10144000BF91AF919F918F917F916F915F914F91DC
:101450003F912F911F910F910F900FBE0F901F90F2
:1014600018951F920F920FB60F9211240F931F938E
:101470002F933F934F935F936F937F938F939F939C
:10148000AF93BF93EF93FF9380911C0190911D0147
:10149000AC01092E000C660B770B9A01112700276F
:1014A000409184005091850060E070E0402B512B0A
:1014B000622B732B40931E0150931F0160932001F8
:1014C00070932101B09B1AC00196092E000CAA0B43
:1014D000BB0BBC0155274427809184009091850067
:1014E000A0E0B0E0842B952BA62BB72B80931E0198
:1014F00090931F01A0932001B0932101E091D601A8
:10150000F091D701309739F06CE070E080913E01A6
:1015100090913F0109950E94C904FF91EF91BF91FD
:10152000AF919F918F917F916F915F914F913F917B
:101530002F911F910F910F900FBE0F901F90189534
:101540001F920F920FB60F9211240F931F932F9398
:101550003F934F935F936F937F938F939F93AF933B
:10156000BF93EF93FF9380911C0190911D01AC01FB
:10157000092E000C660B770B9A011127002740916A
:1015800084005091850060E070E0402B512B622B6D
:10159000732B40931E0150931F01609320017093A1
:1015A0002101B09B1AC00196092E000CAA0BBB0B9F
:1015B000BC01552744278091840090918500A0E0CC
:1015C000B0E0842B952BA62BB72B80931E01909314
:1015D0001F01A0932001B0932101E091D801F09167
:1015E000D901309739F06DE070E080914001909121
:1015F000410109950E94C904FF91EF91BF91AF91FC
:101600009F918F917F916F915F914F913F912F911A
:101610001F910F910F900FBE0F901F9018951F9262
:101620000F920FB60F9211240F931F932F933F9396
:101630004F935F936F937F938F939F93AF93BF93DA
:10164000EF93FF9380911C0190911D01AC01092E35
:10165000000C660B770B9A0111270027409184003C
:101660005091850060E070E0402B512B622B732B72
:1016700040931E0150931F0160932001709321013C
:10168000B09B1AC00196092E000CAA0BBB0BBC0123
:10169000552744278091840090918500A0E0B0E018
:1016A000842B952BA62BB72B80931E0190931F01A3
:1016B000A0932001B0932101E091DA01F091DB01C8
:1016C000309739F06EE070E08091420190914301D3
:1016D00009950E94C904FF91EF91BF91AF919F912D
:1016E0008F917F916F915F914F913F912F911F91BA
:1016F0000F910F900FBE0F901F9018951F920F9291
:101700000FB60F9211240F931F932F933F934F9374
:101710005F936F937F938F939F93AF93BF93EF9359
:10172000FF9380911C0190911D01AC01092E000CCA
:10173000660B770B9A011127002740918400509186
:10174000850060E070E0402B512B622B732B40939F
:101750001E0150931F016093200170932101B09BE3
:101760001AC00196092E000CAA0BBB0BBC01552711
:1017700044278091840090918500A0E0B0E0842B04
:10178000952BA62BB72B80931E0190931F01A0933E
:101790002001B0932101E091DC01F091DD0130974F
:1017A00039F06FE070E08091440190914501099516
:1017B0000E94C904FF91EF91BF91AF919F918F91CA
:1017C0007F916F915F914F913F912F911F910F9159
:1017D0000F900FBE0F901F9018951F920F920FB68B
:1017E0000F9211240F931F932F933F934F935F9367
:1017F0006F937F938F939F93AF93BF93EF93FF93D9
:1018000080911C0190911D01AC01092E000C660B0A
:10181000770B9A0111270027409184005091850091
:1018200060E070E0402B512B622B732B40931E0124
:1018300050931F016093200170932101B09B1AC047
:101840000196092E000CAA0BBB0BBC01552744279F
:101850008091840090918500A0E0B0E0842B952BCE
:10186000A62BB72B80931E0190931F01A0932001FC
:10187000B0932101E091DE01F091DF01309739F062
:1018800060E170E0809146019091470109950E94C6
:10189000C904FF91EF91BF91AF919F918F917F917B
:1018A0006F915F914F913F912F911F910F910F90E9
:1018B0000FBE0F901F9018951F920F920FB60F92A8
:1018C00011240F931F932F933F934F935F936F9325
:1018D0007F938F939F93AF93BF93EF93FF938091E9
:1018E0001C0190911D01AC01092E000C660B770BB9
:1018F0009A0111270027409184005091850060E0F3
:1019000070E0402B512B622B732B40931E015093A0
:101910001F016093200170932101B09B1AC00196B2
:10192000092E000CAA0BBB0BBC0155274427809144
:10193000840090918500A0E0B0E0842B952BA62B2D
:10194000B72B80931E0190931F01A0932001B093A9
:101950002101E091E001F091E101309739F061E17E
:1019600070E0809148019091490109950E94C90455
:10197000FF91EF91BF91AF919F918F917F916F9167
:101980005F914F913F912F911F910F910F900FBE3B
:101990000F901F9018950E94C904789481E083BF2E
:1019A0008895FCCF1F920F920FB60F9211242F93A0
:1019B0003F934F935F936F937F938F939F93EF9397
:1019C000FF9380911C0190911D01019690931D0140
:1019D00080931C01E0912201F0912301309701F1E5
:1019E000428153816481758186179707C9F4CA01C2
:1019F0002091840030918500421B530B41305105EA
:101A000029F480918400909185000196909389003B
:101A100080938800EFE6F0E080818260808305C0DB
:101A2000EFE6F0E080818D7F8083FF91EF919F91C1
:101A30008F917F916F915F914F913F912F910F9077
:101A40000FBE0F901F9018951F920F920FB60F9216
:101A50001124CF92DF92EF92FF922F933F934F93F7
:101A60005F936F937F938F939F93AF93BF93EF9306
:101A7000FF9380911C0190911D016C01092E000CB7
:101A8000EE08FF087601DD24CC24409184005091BB
:101A9000850060E070E0C42AD52AE62AF72AB09BC8
:101AA0001EC06C012FEFC21AD20A0D2C000CEE08DA
:101AB000FF08D60199278827C0908400D090850020
:101AC000E12CF12CC82AD92AEA2AFB2A08C082E292
:101AD00091E00E94940464E271E00E943204E0917B
:101AE0002201F0912301309769F082819381A481D2
:101AF000B5818C199D09AE09BF09181619061A0679
:101B00001B062CF7309721F182819381A481B58146
:101B100020911C0130911D012A173B07C9F49C013B
:101B20004091840050918500841B950B019731F4FE
:101B300020918400309185002F5F3F4F30938900C2
:101B400020938800EFE6F0E080818260808305C00A
:101B5000EFE6F0E080818D7F80830E94C904FF91D1
:101B6000EF91BF91AF919F918F917F916F915F9115
:101B70004F913F912F91FF90EF90DF90CF900F907A
:101B80000FBE0F901F9018953F924F925F926F92E9
:101B90007F928F929F92AF92BF92CF92DF92EF92FD
:101BA000FF920F931F93CF93DF932B013C014901C9
:101BB0005A018FB78078382EF89486E091E00E9421
:101BC0009404EC011B870A87FD86EC86DF86CE86AF
:101BD000332061F0E0910001F09101010280F38176
:101BE000E02D82819381A481B58108C080911E017E
:101BF00090911F01A0912001B0912101480E591E22
:101C00006A1E7B1E4A825B826C827D8218141904D4
:101C10001A041B0444F00F2E88248A94982CA82CB4
:101C2000FFE7BF2EF02D840C951CA61CB71C8E82DE
:101C30009F82A886B98620911C0130911D01C9019F
:101C4000032E000CAA0BBB0BDC01992788274091BF
:101C500084005091850060E070E0842B952BA62BCA
:101C6000B72BB09B13C0C9010196092E000CAA0B1B
:101C7000BB0BDC0199278827409184005091850097
:101C800060E070E0842B952BA62BB72B481A590ADD
:101C90006A0A7B0A1414150416041704ACF562E2F0
:101CA00071E0CE010E946304E0912201F0912301D2
:101CB000309721F182819381A481B58120911C010B
:101CC00030911D012A173B07C9F49C014091840003
:101CD00050918500841B950B019731F4209184006D
:101CE000309185002F5F3F4F30938900209388000B
:101CF000EFE6F0E080818260808339C0EFE6F0E0BB
:101D000080818D7F808333C064E271E0CE010E94C8
:101D10003204332061F18091040190910501892BF7
:101D200031F1E0912401F091250186819781A08510
:101D3000B185E0910201F09103010280F381E02D71
:101D40004681578160857185841B950BA60BB70B67
:101D500072F484E091E00E94BF0462E071E00E94AE
:101D6000B50480910201909103010E941204332076
:101D700009F07894CE01DF91CF911F910F91FF90E0
:101D8000EF90DF90CF90BF90AF909F908F907F901B
:101D90006F905F904F903F900895CF92DF92EF92B7
:101DA000FF920F931F93CF93DF93EC017B016A01A6
:101DB0001FB71078F894A881B981109719F435C02D
:101DC000A081B1811496ED91FC9115973097C1F7E0
:101DD0002091000130910101A217B30711F01111F8
:101DE00007C0112309F44AC078948FEF9FEF4EC0CB
:101DF0008A819B81009719F0FC01158214823B8334
:101E00002A83F901D583C483CD010E941204E09195
:101E10000001F091010182819381892B31F411231A
:101E200081F1789480E090E031C080910001909140
:101E3000010199838883112329F08A819B8101976D
:101E400009F07894B601CE01F7010995F82E092F13
:101E50008FB7F894198218828A819B81823091050C
:101E600038F01B821A82FC01158214820E9412042F
:101E7000112351F078948F2D902F08C08FEF9FEF92
:101E800005C080E090E002C08F2D902FDF91CF91B0
:101E90001F910F91FF90EF90DF90CF9008950091E8
:101EA00000011091010184E291E00E949404EC0190
:101EB000F8019383828378946C857D854E855F8558
:101EC0008A859B850E94CD0E8FB7F89466E071E0FD
:101ED000CE010E94AB04E0910201F0910301019058
:101EE000F081E02DC281D381E0912401F0912501A0
:101EF0003097A1F0209799F286819781A085B185CE
:101F00004E815F8168857985841B950BA60BB70B85
:101F1000181619061A061B060CF0C1CF82E091E0D4
:101F20000E94BF0464E071E00E94B504A091020128
:101F3000B091030102C0A081B1811496ED91FC9192
:101F400015973097C1F7CD010E941204A8CFFC016C
:101F50004231B8F49FB79078F89450E0440F551F81
:101F6000DA01AA5DBE4FED93FC93DA01A254BE4F95
:101F70006D937C9321E030E033832283992309F031
:101F8000789408958C017B016A018FB7F8940E94C0
:101F900073037894E114F10441F020E030E0A901EA
:101FA00060E070E0CB010E94C40D8FB7F8940E94EE
:101FB000CB0C052E97FB1EF400940E94F00F57FDEA
:101FC00007D00E94F80F07FC03D04EF40C94F00FDA
:101FD00050954095309521953F4F4F4F5F4F089555
:101FE00090958095709561957F4F8F4F9F4F089585
:101FF000A1E21A2EAA1BBB1BFD010DC0AA1FBB1F0D
:10200000EE1FFF1FA217B307E407F50720F0A21B7E
:10201000B30BE40BF50B661F771F881F991F1A94EB
:1020200069F760957095809590959B01AC01BD0115
:10203000CF010895DC012D923D924D925D926D92FB
:102040007D928D929D92AD92BD92CD92DD92ED9258
:10205000FD920D931D93CD93DD93FF91EF918DB77D
:102060008D938EB78D938FB78D93ED93FD938827C6
:1020700099270994DC01CB0181309105811D2D90B8
:102080003D904D905D906D907D908D909D90AD9028
:10209000BD90CD90DD90ED90FD900D911D91CD9175
:1020A000DD91ED91FD910D90F894FEBF0FBEEDBF57
:0A20B000ED91FD910994F894FFCF23
:1020BA00E201E2014A01FF0151151001111E111B33
:0C20CA00500B411B411F1101511F510B15
:00000001FF
