S01700004763634170706C69636174696F6E312E737265635B
S11300000C942E000C9443000C9443000C94430075
S11300100C9443000C9443000C9443000C94430050
S11300200C9443000C9443000C9443000C94430040
S11300300C9443000C9443000C9443000C94430030
S11300400C9443000C9443000C9443000C94430020
S11300500C9443000C9443000C94430011241FBEE1
S1130060CFEFD4E0DEBFCDBF11E0A0E0B1E0E4EF1C
S1130070F0E002C005900D92A230B107D9F70E94BA
S113008045000C9478000C940000E1E6F0E080E870
S1130090808310820E94550063E070E080E091E06C
S11300A00E94620080E090E0089587EB8093E50071
S11300B087E08093E6008FE08093E70080EC8093F4
S11300C0E400089525E02093F1009FE09093F6006A
S11300D01092FB0081E08093ED002093F200909356
S11300E0F7001092FC008093F4008093F9000895C7
S10700F0F894FFCFAE
S10500F44100C5
S9030000FC
