S01700004763634170706C69636174696F6E312E737265635B
S11300000C942E000C9443000C9443000C94430075
S11300100C9443000C9443000C9443000C94430050
S11300200C9443000C9443000C9443000C94430040
S11300300C9443000C9443000C9443000C94430030
S11300400C9443000C9443000C9443000C94430020
S11300500C9443000C9443000C94430011241FBEE1
S1130060CFEFD4E0DEBFCDBF11E0A0E0B1E0E6EE1B
S1130070F0E002C005900D92A030B107D9F70E94BC
S113008045000C9471000C940000E1E6F0E080E877
S1130090808310820E9451000E945E0080E090E004
S11300A0089587EB8093E50087E08093E6008FE076
S11300B08093E70080EC8093E400089580E885B99C
S11300C081E08093F4001092F90091E083B18111F2
S11300D005C01092F90083B18823D9F39093F900F5
S10900E0F5CFF894FFCFF8
S9030000FC
