S01700004763634170706C69636174696F6E312E737265635B
S11300000C9438000C9442000C9442000C9442006E
S11300100C9442000C9442000C9442000C94420054
S11300200C9442000C9442000C9442000C94420044
S11300300C9442000C9442000C9442000C94420034
S11300400C9442000C9442000C9442000C94420024
S11300500C9442000C9442000C9442000F010A01DB
S1130060F900EF00D300B600AA0078008C0020014C
S113007011241FBECFEFD4E0DEBFCDBF0E944400E9
S11300800C94AC010C940000E1E6F0E080E880837D
S113009010820E9458002FEE3FE940E556E962E0E5
S11300A070E080E090E00E94380180E090E00895E4
S11300B087EB8093E50087E08093E6008FE08093F0
S11300C0E70080EC8093E40008956630710508F53C
S11300D09B013595279560FF1DC040E190E0FC0130
S11300E0F097EA30F105A8F4E25DFF4F0C94840127
S11300F0F901E451FF4F8081840F8083359680811C
S1130100840F808335968081480F408335968081A3
S11301108083089541E0E2CFF901E451FF4F8081EB
S1130120840F808335969081842F880F880F840FE5
S1130130890F808335969081842F880F840F582FE0
S1130140550F550F850F890F808335968081480F91
S113015040830895F901E451FF4F8081840F808327
S113016035968081942F990F990FE2CFF901E451CC
S1130170FF4F8081840F808335968081942F990F5F
S1130180990F890F808335965081842F880F982F7B
S1130190990F990F890F840F850F8083359680817D
S11301A0480F40830895F901E451FF4F8081808313
S11301B035969081842F880F880F840F890F808350
S11301C035969081542F550F852F880F880F850FF2
S11301D0480F490F40833596808180830895F90143
S11301E0E451FF4F8081840F808335968081840F92
S11301F0C9CFF901E451FF4F8081840F8083359684
S11302008081840F8083359680819EE0499F800D94
S113021011249ACFF901E451FF4F80816ECFF90187
S1130220E451FF4F8081840F808335969081842F21
S1130230880F880F840F980F90833596908183CF11
S1130240F901E451FF4F8081840F808335969081BA
S1130250842F880F880F840F890F808335968081BF
S1130260542F550F952F990F990F950F490F4CCF78
S11302708F929F92AF92BF92EF92FF920F931F9330
S1130280CF93DF937B018C01C5E0D0E08AE0882E18
S1130290912CA12CB12CB701C801A50194010E9495
S11302A06501862F79018A01BE01805D0E94650087
S11302B0219788F7DF91CF911F910F91FF90EF90D5
S11302C0BF90AF909F908F900895052E97FB1EF4DA
S11302D000940E947C0157FD07D00E948A0107FC0C
S11302E003D04EF40C947C015095409530952195A3
S11302F03F4F4F4F5F4F089590958095709561954E
S11303007F4F8F4F9F4F0895EE0FFF1F0590F4917D
S1130310E02D0994A1E21A2EAA1BBB1BFD010DC0FE
S1130320AA1FBB1FEE1FFF1FA217B307E407F507A1
S113033020F0A21BB30BE40BF50B661F771F881F7D
S1130340991F1A9469F760957095809590959B0113
S10F0350AC01BD01CF010895F894FFCF6B
S9030000FC
