:100000000C942E000C944B000C944B000C94B901F2
:100010000C944B000C944B000C944B000C94DF019F
:100020000C944B000C944B000C944B000C944B0024
:100030000C944B000C944B000C944B000C944B0014
:100040000C944B000C944B000C944B000C944B0004
:100050000C944B000C944B000C944B0011241FBECD
:10006000CFEFD4E0DEBFCDBF11E0A0E0B1E0EEEB1A
:10007000F7E002C005900D92A831B107D9F723E04F
:10008000A8E1B1E001C01D92A934B207E1F70E94D6
:100090007E010C94DD030C940000C0E0D0E011E080
:1000A0008CE191E00E94E002CD2B51F41093EF001F
:1000B000C1E0D0E08CE191E00E94E002CD2BB1F3F1
:1000C0001092EF00C0E0D0E0EBCFCF93DF93CDB73D
:1000D000DEB764970FB6F894DEBF0FBECDBF94E1D4
:1000E000E4E0F1E0DE01119601900D929A95E1F7BE
:1000F0006630710550F5FB01F595E795E451FF4F2A
:10010000A82FB0E0D097AA0FBB1F81E090E08C0F22
:100110009D1FA80FB91F4D915C9161707727DF017A
:100120005496CA018F70992761307105B9F020810A
:10013000207F822B80833596529542954F704527BC
:100140005F704527EA17FB0761F764960FB6F894CE
:10015000DEBF0FBECDBFDF91CF91089582959295FE
:10016000907F9827807F982720812F70E2CF8F92F1
:100170009F92AF92BF92CF92DF92EF92FF92CF9376
:10018000DF934B015C01EA0180E291E00E94E00212
:10019000C501B40124E630E040E050E00E945B037A
:1001A0002AE0C22ED12CE12CF12CA70196010E944D
:1001B0005B03BE0180E3820F0E9465002196C501AA
:1001C000B401A70196010E945B03862FBE01805DEA
:1001D0000E94650080E291E0DF91CF91FF90EF9067
:1001E000DF90CF90BF90AF909F908F900C941E03A4
:1001F00080E885B981E08093F4001092F90044E032
:1002000050E060E070E0CB010E94B700C0E000E089
:1002100010E0C12CD12C760188E191E00E94E0022F
:1002200044E050E0C701B6010E94B7001F9912C018
:10023000C1110EC08091F900813009F11F9904C0ED
:100240008091F400813071F01F9BE6CFC0E0E4CFD5
:1002500083B1FACF1F99F8CFC111F6CF8091F40086
:10026000813091F70F5F1F4F8093F9001092F400D7
:10027000C1E06801012E000CEE08FF08CDCF0F5F32
:100280001F4F1092F9008093F400C1E06801012E25
:10029000000CEE08FF08C0CFEC01812C912C54011A
:1002A000839483E088169104A104B104E4F080FEF5
:1002B0001FC083E0C82ED12CE12CF12C0DC08FEF94
:1002C000C81AD80AE80AF80AC501B4010E945B03FB
:1002D000672B682B692B61F09601A701C814D9041C
:1002E000EA04FB0461F7AE01C501B4010E94B70046
:1002F0008FEF881A980AA80AB80AD3CFE1E6F0E08F
:1003000080E88083108287EB8093E50087E080930C
:10031000E6008FE08093E70080EC8093E400809318
:1003200080008DE08093810082E080936F0082E402
:100330009FE090938900809388001092850010922E
:1003400084008CE191E00E94E00288E191E00E944B
:10035000E00260E070E08DE490E00E94250260E041
:1003600070E088EF90E00E94250280E090E00E941B
:100370004C011F920F920FB60F9211242F933F93AF
:100380004F935F936F937F938F939F93AF93BF939D
:10039000EF93FF9388E191E00E941E03FF91EF919C
:1003A000BF91AF919F918F917F916F915F914F918D
:1003B0003F912F910F900FBE0F901F9018951F9295
:1003C0000F920FB60F9211242F933F934F935F9389
:1003D0006F937F938F939F93AF93BF93EF93FF930D
:1003E0008CE191E00E941E03FF91EF91BF91AF91CC
:1003F0009F918F917F916F915F914F913F912F913D
:100400000F900FBE0F901F901895CF93DF9300D0E1
:10041000CDB7DEB79A838983809100019091010165
:1004200006960E949C03892B29F00F900F90DF9174
:10043000CF91089589819A81909301018093000161
:1004400061E070E006960E94BC03CF93DF9300D07A
:10045000CDB7DEB7F8942091240130912501232BEC
:1004600011F522E032E030939A01209399012FE6B2
:1004700032E030930702209306022CED32E03093F5
:100480007402209373021092E1021092E00221E0C4
:1004900030E0309325012093240120E820936C0064
:1004A0002DBB20E925B920910201309103013A8347
:1004B0002983232B09F43FC0E981FA8144815581C6
:1004C000509303014093020191838083738362837D
:1004D00015821482CF0106960E949C03019789F130
:1004E000E981FA81369689819A8187599F4F918B4C
:1004F000808B938B828BA0910001B09101011596A6
:100500001C921E921497E0912601F09127013097DA
:1005100011F412C0FC01848195810097D9F7B5834D
:10052000A48389819A810E94050278940F900F908C
:10053000DF91CF910895FFCFB0932701A0932601BB
:10054000F0CF7894A0910001B0910101ED91FC9160
:10055000119712968D919C9113970995F894A091FB
:100560000001B091010115961C921E921497E09122
:100570000201F0910301309711F417C0FC0184814E
:1005800095810097D9F7B583A48380912601909136
:1005900027010097A1F0FC012481358130932701C8
:1005A000209326010E9405029BCFB0930301A093E4
:1005B00002018091260190912701009761F7FFCFFA
:1005C000CF93DF93DC01F8948D919C911197892B47
:1005D00041F1C0910001D09101011D821C8212964F
:1005E000ED91FC911397309711F423C0FC018481A5
:1005F00095810097D9F7D583C48380912601909186
:100600002701009769F0FC0124813581309327018F
:10061000209326010E9405027894DF91CF910895DE
:10062000FFCF81E090E08D939C937894DF91CF9100
:1006300008951396DC93CE931297DFCFCF93DF9379
:10064000FC01F89482819381892B51F1C0910001C2
:10065000D09101011D821C82A0912601B091270139
:10066000109711F423C0DC0114968D919C9115977D
:100670000097C9F71596DC93CE93149782819381E6
:10068000009769F0DC0114962D913C911597338306
:1006900022830E9405027894DF91CF910895FFCFC5
:1006A000118210827894DF91CF910895D093270121
:1006B000C0932601E3CF052E97FB1EF400940E9401
:1006C000720357FD07D00E947A0307FC03D04EF453
:1006D0000C94720350954095309521953F4F4F4FA4
:1006E0005F4F089590958095709561957F4F8F4FDE
:1006F0009F4F0895A1E21A2EAA1BBB1BFD010DC03E
:10070000AA1FBB1FEE1FFF1FA217B307E407F507C1
:1007100020F0A21BB30BE40BF50B661F771F881F9D
:10072000991F1A9469F760957095809590959B0133
:10073000AC01BD01CF010895DC012D923D924D9297
:100740005D926D927D928D929D92AD92BD92CD9271
:10075000DD92ED92FD920D931D93CD93DD93FF916C
:10076000EF918DB78D938EB78D938FB78D93ED935A
:10077000FD93882799270994DC01CB0181309105ED
:10078000811D2D903D904D905D906D907D908D9050
:100790009D90AD90BD90CD90DD90ED90FD900D9130
:1007A0001D91CD91DD91ED91FD910D90F894FEBFDD
:0E07B0000FBEEDBFED91FD910994F894FFCFBF
:1007BE002801950151151001111E111B500B411BE3
:0807CE00411F1101511F510BE5
:00000001FF
