S01700004763634170706C69636174696F6E332E7372656359
S11300000C942E000C944B000C944B000C94820224
S11300100C944B000C944B000C944B000C94B702C2
S11300200C944B000C944B000C944B000C944B0020
S11300300C944B000C944B000C944B000C944B0010
S11300400C944B000C944B000C944B000C944B0000
S11300500C944B000C944B000C944B0011241FBEC9
S1130060CFEFD4E0DEBFCDBF11E0A0E0B1E0EEED14
S1130070F7E002C005900D92A831B107D9F723E04B
S1130080A8E1B1E001C01D92A334B207E1F70E94D8
S113009075010C94ED030C940000CF93DF93CDB75E
S11300A0DEB764970FB6F894DEBF0FBECDBF94E100
S11300B0E4E0F1E0DE01119601900D929A95E1F7EA
S11300C06630710550F5FB01F595E795E451FF4F56
S11300D0A82FB0E0D097AA0FBB1F81E090E08C0F4F
S11300E09D1FA80FB91F4D915C9161707727DF01A7
S11300F05496CA018F70992761307105B9F0208137
S1130100207F822B80833596529542954F704527E8
S11301105F704527EA17FB0761F764960FB6F894FA
S1130120DEBF0FBECDBFDF91CF910895829592952A
S1130130907F9827807F982720812F70E2CF8F921D
S11301409F92AF92BF92CF92DF92EF92FF92CF93A2
S1130150DF934B015C01EA0188E191E00E94E40233
S1130160C501B40124E630E040E050E00E946B0396
S11301702AE0C22ED12CE12CF12CA70196010E9479
S11301806B03BE0180E3820F0E944D002196C501DE
S1130190B401A70196010E946B03862FBE01805D06
S11301A00E944D0088E191E0DF91CF91FF90EF90A4
S11301B0DF90CF90BF90AF909F908F900C942203CC
S11301C081E08093F4001092F900C0E000E010E0B8
S11301D0C12CD12C760144E050E0C701B6010E9445
S11301E09F001F9917C0C1112AC08091F900813066
S11301F041F11F9904C08091F400813099F01F9B54
S1130200EACFC0E044E050E0C701B6010E949F007D
S11302101F9BE9CF1F99F3CFC111F1CF8091F40057
S1130220813069F70F5F1F4F8093F9001092F4003B
S1130230C1E06801012E000CEE08FF08CCCF83B1A9
S1130240DECF0F5F1F4F1092F9008093F400C1E0DE
S11302506801012E000CEE08FF08BDCFEC01812CD3
S1130260912C5401839483E088169104A104B10471
S1130270E4F080FE1FC083E0C82ED12CE12CF12CC9
S11302800DC08FEFC81AD80AE80AF80AC501B401EC
S11302900E946B03672B682B692B61F09601A70101
S11302A0C814D904EA04FB0461F7AE01C501B40122
S11302B00E949F008FEF881A980AA80AB80AD3CF21
S11302C0C0E0D0E011E00E945F034497E4F30E9491
S11302D06403CD2B29F41093EF00C1E0D0E0F3CFF9
S11302E01092EF00C0E0D0E0EECFE1E6F0E080E86D
S11302F08083108287EB8093E50087E08093E6009B
S11303008FE08093E70080EC8093E40060E070E08D
S11303108EE291E00E94B40160E070E080EE90E033
S11303200E94B4010E946001CF93DF9300D0CDB747
S1130330DEB79A838983809100019091010106962A
S11303400E94AC03892B29F00F900F90DF91CF917D
S1130350089589819A81909301018093000161E05D
S113036070E006960E94CC03CF93DF9300D0CDB704
S1130370DEB7F89420911C0130911D01232BA9F5BF
S11303802CEF31E0309394012093930129E632E07D
S1130390309301022093000226ED32E030936E0286
S11303A020936D021092DB021092DA0221E030E019
S11303B030931D0120931C0120E820936C002DBB79
S11303C020E925B920EC209380002DE020938100C2
S11303D022E020936F0026E831E0309389002093D7
S11303E088001092850010928400209102013091BF
S11303F003013A832983232BC9F1E981FA814481DA
S11304005581509303014093020191838083738348
S1130410628315821482CF0106960E94AC03019771
S113042091F1E981FA81369689819A8187599F4FA2
S1130430918B808B938B828BE981FA811582148254
S1130440E0912001F0912101309711F410C0FC01DA
S1130450848195810097D9F789819A8195838483D2
S113046078940F900F90DF91CF910895FFCF298159
S11304703A81309321012093200178940F900F90BA
S1130480DF91CF9108957894A0910001B09101017A
S1130490ED91FC91119712968D919C91139709956A
S11304A0F894A0910001B091010115961C921E923E
S11304B01497E0910201F0910301309711F417C0F1
S11304C0FC01848195810097D9F7B583A483809139
S11304D02001909121010097A1F0FC012481358134
S11304E030932101209320010E9494019ACFB0936C
S11304F00301A093020180912001909121010097B2
S113050061F7FFCF1F920F920FB60F9211240F9035
S11305100FBE0F901F901895F89480910001909150
S11305200101FC0115821482A0912001B0912101E6
S11305301097B9F0FD0101C0F9012481358121151D
S11305403105D1F79583848314962D913C911597A9
S1130550CD0130932101209320010E9494017894CD
S11305600895009709F4FFCF20E030E0F2CF1F9206
S11305700F920FB60F9211242F933F934F935F93D3
S11305806F937F938F939F93AF93BF93EF93FF9357
S113059080911E0190911F01019690931F018093F9
S11305A01E010E948C02FF91EF91BF91AF919F9128
S11305B08F917F916F915F914F913F912F910F9008
S11305C00FBE0F901F901895CF93DF93DC01F89422
S11305D08D919C911197892B41F1C0910001D0918B
S11305E001011D821C821296ED91FC9113973097A4
S11305F011F423C0FC01848195810097D9F7D58338
S1130600C4838091200190912101009769F0FC013D
S11306102481358130932101209320010E9494018B
S11306207894DF91CF910895FFCF81E090E08D938E
S11306309C937894DF91CF9108951396DC93CE9395
S11306401297DFCFCF93DF93FC01F89482819381DB
S1130650892B51F1C0910001D09101011D821C82AE
S1130660A0912001B0912101109711F423C0DC0165
S113067014968D919C9115970097C9F71596DC9364
S1130680CE93149782819381009769F0DC011496CC
S11306902D913C911597338322830E949401789481
S11306A0DF91CF910895FFCF118210827894DF916A
S11306B0CF910895D0932101C0932001E3CF80917D
S11306C01E0190911F010895F89410921F01109239
S11306D01E0178940895052E97FB1EF400940E9441
S11306E0820357FD07D00E948A0307FC03D04EF40F
S11306F00C94820350954095309521953F4F4F4F70
S11307005F4F089590958095709561957F4F8F4FB9
S11307109F4F0895A1E21A2EAA1BBB1BFD010DC019
S1130720AA1FBB1FEE1FFF1FA217B307E407F5079D
S113073020F0A21BB30BE40BF50B661F771F881F79
S1130740991F1A9469F760957095809590959B010F
S1130750AC01BD01CF010895DC012D923D924D9273
S11307605D926D927D928D929D92AD92BD92CD924D
S1130770DD92ED92FD920D931D93CD93DD93FF9148
S1130780EF918DB78D938EB78D938FB78D93ED9336
S1130790FD93882799270994DC01CB0181309105C9
S11307A0811D2D903D904D905D906D907D908D902C
S11307B09D90AD90BD90CD90DD90ED90FD900D910C
S11307C01D91CD91DD91ED91FD910D90F894FEBFB9
S11107D00FBEEDBFED91FD910994F894FFCF9B
S11307DE22018F0151151001111E111B500B411BCB
S10B07EE411F1101511F510BC1
S9030000FC
