:100000000C942E000C9468050C94D7050C944606AD
:100010000C94B5060C9424070C944B000C948F0D93
:100020000C944B000C943D0D0C9493070C94020817
:100030000C9471080C94E0080C944F090C94BE09C0
:100040000C942D0A0C949C0A0C940B0B0C947A0BB8
:100050000C94E90B0C94580C0C94C70C11241FBE83
:10006000CFEFD4E0DEBFCDBF11E0A0E0B1E0E0E92A
:10007000F1E202C005900D92A033B107D9F724E058
:10008000A0E3B1E001C01D92A338B207E1F70E94DE
:1000900010030C94C6100C940000CF93DF93CDB7DF
:1000A000DEB764970FB6F894DEBF0FBECDBF94E104
:1000B000E8E0F1E0DE01119601900D929A95E1F7EA
:1000C0006630710508F054C0FB0177230CF43196BB
:1000D000F595E795E451FF4FA82FB0E0D097AA0F10
:1000E000BB1F81E090E08C0F9D1FA80FB91F0D90E2
:1000F000BC91A02D40E050E038C0CD018F70992711
:100100009B0121703078332334F4215031092E6F54
:100110003F6F2F5F3F4F2130310589F482959295D3
:10012000907F9827807F9827EC3EF10521F420816D
:100130002D7020830EC020812F7020830AC0EC3EDA
:10014000F10521F42081207D208303C02081207FC0
:1001500020839081892B80833596B295A295AF70CC
:10016000AB27BF70AB274F5F5F4F443051052CF278
:1001700064960FB6F894DEBF0FBECDBFDF91CF916E
:1001800008958F929F92AF92BF92CF92DF92EF929B
:10019000FF92CF93DF934B015C01EA0124E630E04C
:1001A00040E050E00E9444100F2EFAE0CF2ED12CF8
:1001B000E12CF12CF02DA70196010E944410BE0104
:1001C00080E3820F0E944D002196C501B401A70172
:1001D00096010E944410862FBE01805D0E944D0052
:1001E000DF91CF91FF90EF90DF90CF90BF90AF90D5
:1001F0009F908F900895E5EEF0E08081876B80837B
:10020000E6EEF0E0808187608083E7EEF0E08081B9
:100210008F608083E4EEF0E08081806C8083EDEE7F
:10022000F0E0808188608083E7EFF0E08081886083
:100230008083ECEFF0E080818860808340E050E0D4
:1002400060E070E0CB010E94C10044E050E060E05B
:1002500070E0CB010E94C1000895FC01208531852A
:1002600021303105B9F42E5F3F4F220F331FE20FCB
:10027000F31F40E050E068E773E0808191810E94C5
:10028000380FBC01990F880B990B40E050E00E9499
:10029000C10008952E5F3F4F220F331FFC01E20F74
:1002A000F31F40E050E068E773E0808191810E9495
:1002B000380FBC01990F880B990B44E050E00E9465
:1002C000C1000895CF93DF93FC017187608761308F
:1002D0007105D9F4EDEEF0E0808188608083A7EFAE
:1002E000B0E08C9188608C93ECEFF0E080818860C6
:1002F0008083C2EFD0E088818F7D88838C918F7D51
:100300008C9380818F7B80831AC0EDEEF0E080813A
:10031000877F8083A7EFB0E08C91877F8C93ECEF91
:10032000F0E08081877F8083C2EFD0E088818062A7
:1003300088838C9180628C93808180648083DF913C
:10034000CF910895CF92DF92EF92FF920F931F9378
:10035000CF93DF93EC011E9931C08A859B85892B51
:1003600069F5E885F9853296EE0FFF1FEC0FFD1F4A
:1003700000811181C12CD12C0F2EF8E9EF2EF3E072
:10038000FF2EF02D20E030E0A90160E070E0CB010D
:100390000E942F0E81E090E09B878A870F2EFBE35F
:1003A000EF2EF2E0FF2EF02D8E0120E030E0A901CB
:1003B0006FE472E180E090E00E942F0ECE010E9477
:1003C0002D01DF91CF911F910F91FF90EF90DF9062
:1003D000CF900895CF92DF92EF92FF920F931F93E9
:1003E000CF93DF93EC011F9931C08A859B85892BC0
:1003F00069F5E885F9853296EE0FFF1FEC0FFD1FBA
:1004000000811181C12CD12C0F2EFDEAEF2EF3E0DB
:10041000FF2EF02D20E030E0A90160E070E0CB017C
:100420000E942F0E81E090E09B878A870F2EFBE3CE
:10043000EF2EF2E0FF2EF02D8E0120E030E0A9013A
:100440006FE472E180E090E00E942F0ECE010E94E6
:100450002D01DF91CF911F910F91FF90EF90DF90D1
:10046000CF9008951F9903C00E94EA0108951E9B32
:100470000E94A2010895FC01138612860E94320296
:1004800008958DB180658DB98DB3806C8DBBECE620
:10049000F0E080818064808385B1806485B980814B
:1004A0008068808385B1806885B9ABE6B0E08C91C7
:1004B00088608C938EB188608EB98C9184608C93A7
:1004C0008EB184608EB980818061808385B18061C6
:1004D00085B90895CF92DF92EF92FF920F931F9309
:1004E000CF93DF93EC011F9913C00C811D81C12CA8
:1004F000D12C0F2EFAEEEF2EF1E0FF2EF02D20E0A2
:1005000030E0A90160E070E0CB010E942F0E34C002
:100510001E9913C00C811D81C12CD12C0F2EF2EA23
:10052000EF2EF1E0FF2EF02D20E030E0A90160E099
:1005300070E0CB010E942F0E1FC01C991DC0AC8122
:10054000BD811896ED91FC9119973296EE0FFF1F21
:10055000EA0FFB1F00811181C12CD12C0F2EF4EC6E
:10056000EF2EF3E0FF2EF02D20E030E0A90160E057
:1005700070E0CB010E942F0E0C811D81C12CD12C6B
:100580000F2EFDE2EF2EF1E0FF2EF02D20E030E007
:10059000A90160E070E0CB010E942F0EDF91CF91A6
:1005A0001F910F91FF90EF90DF90CF900895CF9221
:1005B000DF92EF92FF920F931F93629915C0FC0197
:1005C00004811581CC24C394D12C0F2EF2E6EF2E9A
:1005D000F1E0FF2EF02D20E030E0A90160E070E0B6
:1005E000CB010E942F0E15C0639913C0FC0104813A
:1005F0001581C12CD12C0F2EF2E6EF2EF1E0FF2E4B
:10060000F02D20E030E0A90160E070E0CB010E9415
:100610002F0E1F910F91FF90EF90DF90CF900895D4
:10062000CF93DF93CDB7DEB7EA970FB6F894DEBF6E
:100630000FBECDBFE1E6F0E080E8808310820E942B
:1006400041020E94FB0024E1ECE1F1E0CE010196C1
:10065000DC0101900D922A95E1F71E8A1D8A188E01
:100660001F8A1A8E198E1C8E1B8E9E8F8D8F18A23C
:100670001F8E1AA219A21CA21BA21EA21DA20A96BC
:1006800098A78FA31AA619A61CA61BA60A969EA712
:100690008DA70A9698AB8FA781E090E09AAB89ABC3
:1006A0001CAA1BAA1EAA1DAA18AE1FAACE018996B3
:1006B0009AAF89AF41E067ED72E00C960E9412108C
:1006C00042E06AE672E0CE01C5960E94121040E058
:1006D00050E06DE271E089AD9AAD0E942D10EA966E
:1006E0000FB6F894DEBF0FBECDBFDF91CF91089556
:1006F000FC01848195810895FC0184819581892B79
:10070000B1F0A085B18518968D919C911997892B90
:1007100071F481E090E019969C938E931897A085D0
:10072000B1858481958117969C938E931697089531
:10073000FC01848195818336910518F40196958397
:100740008483A085B18518968D919C911997892BEA
:1007500019F4CF010E947C030895FC0184819581E6
:100760009C01215031092336310510F4358324834F
:10077000A085B18518968D919C911997892B19F4B4
:10078000CF010E947C030895FC018481958100972C
:1007900029F0978386831582148204C0868197810D
:1007A00095838483A085B18518968D919C91199726
:1007B000892B19F4CF010E947C030895CF93DF9316
:1007C00000D000D0CDB7DEB780E090E018C0AC011B
:1007D0004F5F5F4F9A0122953295307F3227207FFD
:1007E00032272D5E3D4F82959295907F9827807F8E
:1007F0009827FC01ED5EFD4F31832083CA018E30C6
:1008000091052CF31092F4021092F30280E090E034
:1008100015C0AC014F5F5F4F6DE1649F9001659F14
:10082000300D1124225A3E4F689FF001699FF00D50
:100830001124E25AFE4F31832083CA01833091058F
:1008400044F31092B6011092B5011A82198232C097
:100850002DE149815A81249FC001259F900D1124CB
:10086000FC01EC59FE4FFC83EB83CF010E94851005
:1008700020E649815A81249FC001259F900D1124B3
:10088000815A9C4FEB81FC81918B808B938B828B67
:100890008AEB9FE0968B858B8DE1849FF001859F8D
:1008A000F00D1124E25AFE4F158214824F5F5F4F04
:1008B0005A83498329813A81243031054CF2E6EF8D
:1008C000F1E0118210821582148213821282E1E615
:1008D000F0E080E8808310821092850010928400FE
:1008E00084E08093810081E080936F000F900F90EF
:1008F0000F900F90DF91CF910895CF93DF9300D0A9
:10090000CDB7DEB79A838983809100019091010170
:1009100006960E948510892B59F489819A819093BB
:1009200001018093000161E070E006960E94A5102D
:100930000F900F90DF91CF9108950F931F93CF9356
:10094000DF93DC01CB01EB01E881F981C0E0D0E06D
:1009500004C0EF010190F081E02D309779F006811D
:1009600017812085318516964D915D916D917C9111
:10097000199740175107620773075CF71196FC93AC
:10098000EE93209721F4FC01B183A08302C0B983C8
:10099000A883DF91CF911F910F9108950F931F931B
:1009A000CF93DF93DC01CB01EB01E881F981C0E05B
:1009B000D0E004C0EF010190F081E02D309779F094
:1009C000028113812481358112964D915D916D9143
:1009D0007C91159740175107620773075CF71196D2
:1009E000FC93EE93209721F4FC01B183A08302C015
:1009F000B983A883DF91CF911F910F910895DC01F6
:100A0000ED91FC911197309759F48FEF8093EC00A2
:100A10008093ED008093EE0081E083BF8895FCCF4A
:100A2000208131812D933C93CF010895FB012081DA
:100A30003181FC0131832083FB0191838083089500
:100A4000FB0120813181FC0131832083FB019183F3
:100A500080830895DC01ED91FC9111972081318113
:100A60002D933C93CF010895CF93DF93E091020142
:100A7000F0910301C281D381E0913801F0913901F5
:100A8000309719F18091040190910501892BE9F0CB
:100A9000209769F086819781A085B1854E815F811D
:100AA00068857985841B950BA60BB70B72F484E0DF
:100AB00091E00E942A0562E071E00E942005809189
:100AC0000201909103010E947D04DF91CF9108956E
:100AD0001F920F920FB60F9211240F931F932F9313
:100AE0003F934F935F936F937F938F939F93AF93B6
:100AF000BF93EF93FF938091300190913101AC014E
:100B0000092E000C660B770B9A01112700274091E4
:100B100084005091850060E070E0402B512B622BE7
:100B2000732B4093320150933301609334017093DF
:100B30003501B09B1AC00196092E000CAA0BBB0B05
:100B4000BC01552744278091840090918500A0E046
:100B5000B0E0842B952BA62BB72B8093320190937A
:100B60003301A0933401B0933501E091D201F091AB
:100B7000D301309739F060E070E080913A019091B4
:100B80003B0109950E943405FF91EF91BF91AF9110
:100B90009F918F917F916F915F914F913F912F9195
:100BA0001F910F910F900FBE0F901F9018951F92DD
:100BB0000F920FB60F9211240F931F932F933F9311
:100BC0004F935F936F937F938F939F93AF93BF9355
:100BD000EF93FF938091300190913101AC01092E88
:100BE000000C660B770B9A011127002740918400B7
:100BF0005091850060E070E0402B512B622B732BED
:100C00004093320150933301609334017093350166
:100C1000B09B1AC00196092E000CAA0BBB0BBC019D
:100C2000552744278091840090918500A0E0B0E092
:100C3000842B952BA62BB72B8093320190933301F5
:100C4000A0933401B0933501E091D401F091D50126
:100C5000309739F061E070E080913C0190913D0166
:100C600009950E943405FF91EF91BF91AF919F913B
:100C70008F917F916F915F914F913F912F911F9134
:100C80000F910F900FBE0F901F9018951F920F920B
:100C90000FB60F9211240F931F932F933F934F93EF
:100CA0005F936F937F938F939F93AF93BF93EF93D4
:100CB000FF938091300190913101AC01092E000C1D
:100CC000660B770B9A011127002740918400509101
:100CD000850060E070E0402B512B622B732B40931A
:100CE0003201509333016093340170933501B09B0E
:100CF0001AC00196092E000CAA0BBB0BBC0155278C
:100D000044278091840090918500A0E0B0E0842B7E
:100D1000952BA62BB72B8093320190933301A09390
:100D20003401B0933501E091D601F091D7013097AD
:100D300039F062E070E080913E0190913F010995A9
:100D40000E943405FF91EF91BF91AF919F918F91D8
:100D50007F916F915F914F913F912F911F910F91D3
:100D60000F900FBE0F901F9018951F920F920FB605
:100D70000F9211240F931F932F933F934F935F93E1
:100D80006F937F938F939F93AF93BF93EF93FF9353
:100D90008091300190913101AC01092E000C660B5D
:100DA000770B9A011127002740918400509185000C
:100DB00060E070E0402B512B622B732B409332018B
:100DC000509333016093340170933501B09B1AC086
:100DD0000196092E000CAA0BBB0BBC01552744271A
:100DE0008091840090918500A0E0B0E0842B952B49
:100DF000A62BB72B8093320190933301A09334013B
:100E0000B0933501E091D801F091D901309739F0D4
:100E100063E070E0809140019091410109950E944A
:100E20003405FF91EF91BF91AF919F918F917F9189
:100E30006F915F914F913F912F911F910F910F9063
:100E40000FBE0F901F9018951F920F920FB60F9222
:100E500011240F931F932F933F934F935F936F939F
:100E60007F938F939F93AF93BF93EF93FF93809163
:100E7000300190913101AC01092E000C660B770B0B
:100E80009A0111270027409184005091850060E06D
:100E900070E0402B512B622B732B40933201509307
:100EA00033016093340170933501B09B1AC00196F1
:100EB000092E000CAA0BBB0BBC01552744278091BF
:100EC000840090918500A0E0B0E0842B952BA62BA8
:100ED000B72B8093320190933301A0933401B093E8
:100EE0003501E091DA01F091DB01309739F064E0EF
:100EF00070E0809142019091430109950E94340570
:100F0000FF91EF91BF91AF919F918F917F916F91E1
:100F10005F914F913F912F911F910F910F900FBEB5
:100F20000F901F9018951F920F920FB60F921124D9
:100F30000F931F932F933F934F935F936F937F93E1
:100F40008F939F93AF93BF93EF93FF938091300163
:100F500090913101AC01092E000C660B770B9A01C0
:100F600011270027409184005091850060E070E0D7
:100F7000402B512B622B732B409332015093330142
:100F80006093340170933501B09B1AC00196092E0D
:100F9000000CAA0BBB0BBC01552744278091840091
:100FA00090918500A0E0B0E0842B952BA62BB72B69
:100FB0008093320190933301A0933401B0933501B3
:100FC000E091DC01F091DD01309739F065E070E0EF
:100FD000809144019091450109950E943405FF914B
:100FE000EF91BF91AF919F918F917F916F915F91A1
:100FF0004F913F912F911F910F910F900FBE0F9026
:101000001F9018951F920F920FB60F9211240F93F5
:101010001F932F933F934F935F936F937F938F9380
:101020009F93AF93BF93EF93FF9380913001909183
:101030003101AC01092E000C660B770B9A011127C8
:101040000027409184005091850060E070E0402BC3
:10105000512B622B732B40933201509333016093D9
:10106000340170933501B09B1AC00196092E000C13
:10107000AA0BBB0BBC01552744278091840090919B
:101080008500A0E0B0E0842B952BA62BB72B809396
:10109000320190933301A0933401B0933501E09174
:1010A000DE01F091DF01309739F066E070E0809169
:1010B00046019091470109950E943405FF91EF91F7
:1010C000BF91AF919F918F917F916F915F914F9160
:1010D0003F912F911F910F910F900FBE0F901F9076
:1010E00018951F920F920FB60F9211240F931F9312
:1010F0002F933F934F935F936F937F938F939F9320
:10110000AF93BF93EF93FF938091300190913101A2
:10111000AC01092E000C660B770B9A0111270027F2
:10112000409184005091850060E070E0402B512B8D
:10113000622B732B4093320150933301609334013F
:1011400070933501B09B1AC00196092E000CAA0BB2
:10115000BB0BBC01552744278091840090918500EA
:10116000A0E0B0E0842B952BA62BB72B8093320107
:1011700090933301A0933401B0933501E091E001E5
:10118000F091E101309739F067E070E0809148011B
:101190009091490109950E943405FF91EF91BF910B
:1011A000AF919F918F917F916F915F914F913F91FF
:1011B0002F911F910F910F900FBE0F901F901895B8
:1011C0001F920F920FB60F9211240F931F932F931C
:1011D0003F934F935F936F937F938F939F93AF93BF
:1011E000BF93EF93FF938091300190913101AC0157
:1011F000092E000C660B770B9A01112700274091EE
:1012000084005091850060E070E0402B512B622BF0
:10121000732B4093320150933301609334017093E8
:101220003501B09B1AC00196092E000CAA0BBB0B0E
:10123000BC01552744278091840090918500A0E04F
:10124000B0E0842B952BA62BB72B80933201909383
:101250003301A0933401B0933501E091E201F091A4
:10126000E301309739F068E070E080914A01909195
:101270004B0109950E943405FF91EF91BF91AF9109
:101280009F918F917F916F915F914F913F912F919E
:101290001F910F910F900FBE0F901F9018951F92E6
:1012A0000F920FB60F9211240F931F932F933F931A
:1012B0004F935F936F937F938F939F93AF93BF935E
:1012C000EF93FF938091300190913101AC01092E91
:1012D000000C660B770B9A011127002740918400C0
:1012E0005091850060E070E0402B512B622B732BF6
:1012F0004093320150933301609334017093350170
:10130000B09B1AC00196092E000CAA0BBB0BBC01A6
:10131000552744278091840090918500A0E0B0E09B
:10132000842B952BA62BB72B8093320190933301FE
:10133000A0933401B0933501E091E401F091E5010F
:10134000309739F069E070E080914C0190914D0147
:1013500009950E943405FF91EF91BF91AF919F9144
:101360008F917F916F915F914F913F912F911F913D
:101370000F910F900FBE0F901F9018951F920F9214
:101380000FB60F9211240F931F932F933F934F93F8
:101390005F936F937F938F939F93AF93BF93EF93DD
:1013A000FF938091300190913101AC01092E000C26
:1013B000660B770B9A01112700274091840050910A
:1013C000850060E070E0402B512B622B732B409323
:1013D0003201509333016093340170933501B09B17
:1013E0001AC00196092E000CAA0BBB0BBC01552795
:1013F00044278091840090918500A0E0B0E0842B88
:10140000952BA62BB72B8093320190933301A09399
:101410003401B0933501E091E601F091E701309796
:1014200039F06AE070E080914E0190914F0109958A
:101430000E943405FF91EF91BF91AF919F918F91E1
:101440007F916F915F914F913F912F911F910F91DC
:101450000F900FBE0F901F9018951F920F920FB60E
:101460000F9211240F931F932F933F934F935F93EA
:101470006F937F938F939F93AF93BF93EF93FF935C
:101480008091300190913101AC01092E000C660B66
:10149000770B9A0111270027409184005091850015
:1014A00060E070E0402B512B622B732B4093320194
:1014B000509333016093340170933501B09B1AC08F
:1014C0000196092E000CAA0BBB0BBC015527442723
:1014D0008091840090918500A0E0B0E0842B952B52
:1014E000A62BB72B8093320190933301A093340144
:1014F000B0933501E091E801F091E901309739F0BE
:101500006BE070E0809150019091510109950E942B
:101510003405FF91EF91BF91AF919F918F917F9192
:101520006F915F914F913F912F911F910F910F906C
:101530000FBE0F901F9018951F920F920FB60F922B
:1015400011240F931F932F933F934F935F936F93A8
:101550007F938F939F93AF93BF93EF93FF9380916C
:10156000300190913101AC01092E000C660B770B14
:101570009A0111270027409184005091850060E076
:1015800070E0402B512B622B732B40933201509310
:1015900033016093340170933501B09B1AC00196FA
:1015A000092E000CAA0BBB0BBC01552744278091C8
:1015B000840090918500A0E0B0E0842B952BA62BB1
:1015C000B72B8093320190933301A0933401B093F1
:1015D0003501E091EA01F091EB01309739F06CE0D0
:1015E00070E0809152019091530109950E94340559
:1015F000FF91EF91BF91AF919F918F917F916F91EB
:101600005F914F913F912F911F910F910F900FBEBE
:101610000F901F9018951F920F920FB60F921124E2
:101620000F931F932F933F934F935F936F937F93EA
:101630008F939F93AF93BF93EF93FF93809130016C
:1016400090913101AC01092E000C660B770B9A01C9
:1016500011270027409184005091850060E070E0E0
:10166000402B512B622B732B40933201509333014B
:101670006093340170933501B09B1AC00196092E16
:10168000000CAA0BBB0BBC0155274427809184009A
:1016900090918500A0E0B0E0842B952BA62BB72B72
:1016A0008093320190933301A0933401B0933501BC
:1016B000E091EC01F091ED01309739F06DE070E0D0
:1016C000809154019091550109950E943405FF9134
:1016D000EF91BF91AF919F918F917F916F915F91AA
:1016E0004F913F912F911F910F910F900FBE0F902F
:1016F0001F9018951F920F920FB60F9211240F93FF
:101700001F932F933F934F935F936F937F938F9389
:101710009F93AF93BF93EF93FF938091300190918C
:101720003101AC01092E000C660B770B9A011127D1
:101730000027409184005091850060E070E0402BCC
:10174000512B622B732B40933201509333016093E2
:10175000340170933501B09B1AC00196092E000C1C
:10176000AA0BBB0BBC0155274427809184009091A4
:101770008500A0E0B0E0842B952BA62BB72B80939F
:10178000320190933301A0933401B0933501E0917D
:10179000EE01F091EF01309739F06EE070E080914A
:1017A00056019091570109950E943405FF91EF91E0
:1017B000BF91AF919F918F917F916F915F914F9169
:1017C0003F912F911F910F910F900FBE0F901F907F
:1017D00018951F920F920FB60F9211240F931F931B
:1017E0002F933F934F935F936F937F938F939F9329
:1017F000AF93BF93EF93FF938091300190913101AC
:10180000AC01092E000C660B770B9A0111270027FB
:10181000409184005091850060E070E0402B512B96
:10182000622B732B40933201509333016093340148
:1018300070933501B09B1AC00196092E000CAA0BBB
:10184000BB0BBC01552744278091840090918500F3
:10185000A0E0B0E0842B952BA62BB72B8093320110
:1018600090933301A0933401B0933501E091F001DE
:10187000F091F101309739F06FE070E080915801FC
:101880009091590109950E943405FF91EF91BF9104
:10189000AF919F918F917F916F915F914F913F9108
:1018A0002F911F910F910F900FBE0F901F901895C1
:1018B0001F920F920FB60F9211240F931F932F9325
:1018C0003F934F935F936F937F938F939F93AF93C8
:1018D000BF93EF93FF938091300190913101AC0160
:1018E000092E000C660B770B9A01112700274091F7
:1018F00084005091850060E070E0402B512B622BFA
:10190000732B4093320150933301609334017093F1
:101910003501B09B1AC00196092E000CAA0BBB0B17
:10192000BC01552744278091840090918500A0E058
:10193000B0E0842B952BA62BB72B8093320190938C
:101940003301A0933401B0933501E091F201F0919D
:10195000F301309739F060E170E080915A01909185
:101960005B0109950E943405FF91EF91BF91AF9102
:101970009F918F917F916F915F914F913F912F91A7
:101980001F910F910F900FBE0F901F9018951F92EF
:101990000F920FB60F9211240F931F932F933F9323
:1019A0004F935F936F937F938F939F93AF93BF9367
:1019B000EF93FF938091300190913101AC01092E9A
:1019C000000C660B770B9A011127002740918400C9
:1019D0005091850060E070E0402B512B622B732BFF
:1019E0004093320150933301609334017093350179
:1019F000B09B1AC00196092E000CAA0BBB0BBC01B0
:101A0000552744278091840090918500A0E0B0E0A4
:101A1000842B952BA62BB72B809332019093330107
:101A2000A0933401B0933501E091F401F091F501F8
:101A3000309739F061E170E080915C0190915D0137
:101A400009950E943405FF91EF91BF91AF919F914D
:101A50008F917F916F915F914F913F912F911F9146
:101A60000F910F900FBE0F901F9018950E94340594
:101A7000789481E083BF8895FCCF1F920F920FB6B8
:101A80000F9211242F933F934F935F936F937F9304
:101A90008F939F93EF93FF93809130019091310149
:101AA00001969093310180933001E0913601F091DD
:101AB0003701309701F14281538164817581861726
:101AC0009707C9F4CA012091840030918500421B18
:101AD000530B4130510529F4809184009091850089
:101AE00001969093890080938800EFE6F0E0808172
:101AF0008260808305C0EFE6F0E080818D7F808387
:101B0000FF91EF919F918F917F916F915F914F9195
:101B10003F912F910F900FBE0F901F9018951F921D
:101B20000F920FB60F921124CF92DF92EF92FF9295
:101B30002F933F934F935F936F937F938F939F93D5
:101B4000AF93BF93EF93FF93809130019091310158
:101B50006C01092E000CEE08FF087601DD24CC2470
:101B6000409184005091850060E070E0C42AD52A3D
:101B7000E62AF72AB09B1EC06C012FEFC21AD20AC8
:101B80000D2C000CEE08FF08D60199278827C0907D
:101B90008400D0908500E12CF12CC82AD92AEA2AA9
:101BA000FB2A08C086E391E00E94FF0468E371E02D
:101BB0000E949D04E0913601F0913701309769F061
:101BC00082819381A481B5818C199D09AE09BF09D9
:101BD000181619061A061B062CF7309721F1828178
:101BE0009381A481B58120913001309131012A1770
:101BF0003B07C9F49C014091840050918500841BEF
:101C0000950B019731F420918400309185002F5F6E
:101C10003F4F3093890020938800EFE6F0E0808109
:101C20008260808305C0EFE6F0E080818D7F808355
:101C30000E943405FF91EF91BF91AF919F918F91D9
:101C40007F916F915F914F913F912F91FF90EF9016
:101C5000DF90CF900F900FBE0F901F9018953F927E
:101C60004F925F926F927F928F929F92AF92BF92AC
:101C7000CF92DF92EF92FF920F931F93CF93DF9358
:101C80002B013C0149015A018FB78078382EF89416
:101C900086E091E00E94FF04EC011B870A87FD8625
:101CA000EC86DF86CE86332061F0E0910001F09172
:101CB00001010280F381E02D82819381A481B581AD
:101CC00008C08091320190913301A0913401B0910C
:101CD0003501480E591E6A1E7B1E4A825B826C8249
:101CE0007D82181419041A041B0444F00F2E882452
:101CF0008A94982CA82CFFE7BF2EF02D840C951CFD
:101D0000A61CB71C8E829F82A886B98620913001BE
:101D100030913101C901032E000CAA0BBB0BDC0171
:101D200099278827409184005091850060E070E0F9
:101D3000842B952BA62BB72BB09B13C0C901019602
:101D4000092E000CAA0BBB0BDC01992788274091B8
:101D500084005091850060E070E0842B952BA62BC9
:101D6000B72B481A590A6A0A7B0A14141504160478
:101D70001704ACF566E371E0CE010E94CE04E09159
:101D80003601F0913701309721F182819381A4814E
:101D9000B58120913001309131012A173B07C9F4F8
:101DA0009C014091840050918500841B950B019704
:101DB00031F420918400309185002F5F3F4F3093A4
:101DC000890020938800EFE6F0E0808182608083C4
:101DD00039C0EFE6F0E080818D7F808333C068E317
:101DE00071E0CE010E949D04332061F180910401D5
:101DF00090910501892B31F1E0913801F091390181
:101E000086819781A085B185E0910201F09103015F
:101E10000280F381E02D4681578160857185841BA6
:101E2000950BA60BB70B72F484E091E00E942A0593
:101E300062E071E00E94200580910201909103010F
:101E40000E947D04332009F07894CE01DF91CF9178
:101E50001F910F91FF90EF90DF90CF90BF90AF90C8
:101E60009F908F907F906F905F904F903F900895DC
:101E7000CF92DF92EF92FF920F931F93CF93DF9356
:101E8000EC017B016A011FB71078F894A881B98131
:101E9000109719F435C0A081B1811496ED91FC9191
:101EA00015973097C1F72091000130910101A217D9
:101EB000B30711F0111107C0112309F44AC0789437
:101EC0008FEF9FEF4EC08A819B81009719F0FC0134
:101ED000158214823B832A83F901D583C483CD0103
:101EE0000E947D04E0910001F091010182819381C3
:101EF000892B31F4112381F1789480E090E031C096
:101F0000809100019091010199838883112329F028
:101F10008A819B81019709F07894B601CE01F7017F
:101F20000995F82E092F8FB7F894198218828A81A3
:101F30009B818230910538F01B821A82FC01158248
:101F400014820E947D04112351F078948F2D902FDC
:101F500008C08FEF9FEF05C080E090E002C08F2D9A
:101F6000902FDF91CF911F910F91FF90EF90DF9015
:101F7000CF900895009100011091010188E391E054
:101F80000E94FF04EC01F8019383828378946C85AE
:101F90007D854E855F858A859B850E94380F8FB72A
:101FA000F89466E071E0CE010E941605E09102010E
:101FB000F09103010190F081E02DC281D381E09185
:101FC0003801F09139013097A1F0209799F286817C
:101FD0009781A085B1854E815F8168857985841B55
:101FE000950BA60BB70B181619061A061B060CF054
:101FF000C1CF82E091E00E942A0564E071E00E9476
:102000002005A0910201B091030102C0A081B1811D
:102010001496ED91FC9115973097C1F7CD010E9470
:102020007D04A8CFFC014231B8F49FB79078F894B2
:1020300050E0440F551FDA01A65CBE4FED93FC93B0
:10204000DA01AE52BE4F6D937C9321E030E03383D2
:102050002283992309F0789408958C017B016A0109
:102060008FB7F8940E94DE037894E114F10441F0F4
:1020700020E030E0A90160E070E0CB010E942F0E6B
:102080008FB7F8940E94360D052E97FB1EF400942E
:102090000E945B1057FD07D00E94631007FC03D01D
:1020A0004EF40C945B1050954095309521953F4F20
:1020B0004F4F5F4F089590958095709561957F4F34
:1020C0008F4F9F4F0895A1E21A2EAA1BBB1BFD0143
:1020D0000DC0AA1FBB1FEE1FFF1FA217B307E40707
:1020E000F50720F0A21BB30BE40BF50B661F771F5F
:1020F000881F991F1A9469F760957095809590953F
:102100009B01AC01BD01CF010895DC012D923D92F0
:102110004D925D926D927D928D929D92AD92BD9207
:10212000CD92DD92ED92FD920D931D93CD93DD93B3
:10213000FF91EF918DB78D938EB78D938FB78D9360
:10214000ED93FD93882799270994DC01CB01813019
:102150009105811D2D903D904D905D906D907D90ED
:102160008D909D90AD90BD90CD90DD90ED90FD90C7
:102170000D911D91CD91DD91ED91FD910D90F89412
:10218000FEBF0FBEEDBFED91FD910994F894FFCF16
:10219000F601F6015E01130251151001111E111B0B
:1021A000500B411B411F1101511F510B000000003A
:1021B0000400000000000000000006000000000015
:00000001FF
