S00E00004C61626220342E7372656351
S11300000C942E000C942E040C949D040C940C055A
S11300100C947B050C94EA050C944B000C94550C41
S11300200C944B000C94030C0C9459060C94C806C5
S11300300C9437070C94A6070C9415080C948408A8
S11300400C94F3080C9462090C94D1090C94400AA2
S11300500C94AF0A0C941E0B0C948D0B11241FBE30
S1130060CFEFD4E0DEBFCDBF11E0A0E0B1E0ECE122
S1130070FFE102C005900D92AC31B107D9F724E03D
S1130080ACE1B1E001C01D92AF36B207E1F70E94C6
S1130090E8010C948C0F0C94000087EB8093E5002E
S11300A087E08093E6008FE08093E70080EC809304
S11300B0E4008DB180658DB98DB3806C8DBBECE6A9
S11300C0F0E080818064808385B1806485B980811B
S11300D08068808385B1806885B9ABE6B0E08C9197
S11300E088608C938EB188608EB98C9184608C9377
S11300F08EB184608EB980818061808385B1806196
S113010085B9ECEEF0E0808189798062808308957E
S1130110CF93DF93CDB7DEB764970FB6F894DEBF05
S11301200FBECDBF94E1E8E0F1E0DE01119601904D
S11301300D929A95E1F76630710508F046C0FB010F
S113014077230CF43196F595E795E451FF4FA82FEA
S1130150B0E0D097AA0FBB1F81E090E08C0F9D1FE9
S1130160A80FB91F0D90BC91A02D40E050E02AC00B
S1130170CD018F7099279B0121703078332334F49B
S1130180215031092E6F3F6F2F5F3F4F21303105D2
S113019051F482959295907F9827807F98272081AB
S11301A02F70208303C02081207F20839081892B9E
S11301B080833596B295A295AF70AB27BF70AB27FD
S11301C04F5F5F4F443051059CF264960FB6F8942C
S11301D0DEBF0FBECDBFDF91CF9108958F929F9266
S11301E0AF92BF92CF92DF92EF92FF92CF93DF93C1
S11301F04B015C01EA0124E630E040E050E00E945B
S11302000A0F0F2EFAE0CF2ED12CE12CF12CF02D79
S1130210A70196010E940A0FBE0180E3820F0E948B
S113022088002196C501B401A70196010E940A0F16
S1130230862FBE01805D0E948800DF91CF91FF90E0
S1130240EF90DF90CF90BF90AF909F908F900895E4
S1130250BC01990F880B990B44E050E00E94EE001A
S11302600895CF92DF92EF92FF920F931F93CF9353
S1130270DF93EC011F992EC0EC81FD81848195816F
S11302800197A1F406811781C12CD12C0F2EF9E816
S1130290EF2EF2E0FF2EF02D20E030E0A90164ED16
S11302A070E380E090E00E94F50C77C00085118532
S11302B0C12CD12C0F2EF9E8EF2EF2E0FF2EF02DF9
S11302C020E030E0A90164ED70E380E090E00E945A
S11302D0F50C63C083B1829586958695837071F51C
S11302E0EC81FD81848195810197A1F406811781B8
S11302F0C12CD12C0F2EFEE7EF2EF2E0FF2EF02DB5
S113030020E030E0A90164ED70E380E090E00E9419
S1130310F50C43C000851185C12CD12C0F2EFEE7AE
S1130320EF2EF2E0FF2EF02D20E030E0A90164ED85
S113033070E380E090E00E94F50C2FC083B18295B9
S11303408F7059F5EC81FD8184819581019799F431
S113035006811781C12CD12C0F2EF5E9EF2EF2E086
S1130360FF2EF02D20E030E0A90160E070E0CB0129
S11303700E94F50C12C000851185C12CD12C0F2EC2
S1130380F5E9EF2EF2E0FF2EF02D20E030E0A90198
S113039060E070E0CB010E94F50C0C811D81C12C42
S11303A0D12C0F2EFFE3EF2EF2E0FF2EF02D20E0F4
S11303B030E0A90160E070E0CB010E94F50CDF9110
S11303C0CF911F910F91FF90EF90DF90CF90089500
S11303D0CF93DF93CDB7DEB7A6970FB6F894DEBF01
S11303E00FBECDBFE1E6F0E080E8808310821A8280
S11303F019821C821B8288E0DE011596FD01982F6C
S113040011929A95E9F79E01235F3F4FF9011192EA
S11304108A95E9F71E8A1D8A188E1F8A81E090E06A
S11304209A8F898FBC8FAB8F3E8F2D8FCE01019613
S113043098A38F8F1AA219A21CA21BA244969EA352
S11304408DA341E061E371E00C960E94D80E42E076
S113045061E371E0CE0181960E94D80E40E050E045
S11304606DE470E0CE0181960E94F30EA6960FB65D
S1130470F894DEBF0FBECDBFDF91CF910895CF9228
S1130480DF92EF92FF920F931F93FC018481958179
S11304900197B9F4A681B781028513851496CD908E
S11304A0DC9015970F2EF8E2EF2EF1E0FF2EF02DE1
S11304B020E030E0A90160E070E0CB010E94F50C7F
S11304C016C0A085B185028513851496CD90DC9065
S11304D015970F2EF8E2EF2EF1E0FF2EF02D20E01D
S11304E030E0A90160E070E0CB010E94F50C1F919F
S11304F00F91FF90EF90DF90CF900895FC0124813D
S113050035812336310520F42F5F3F4F3583248313
S11305100895FC0124813581A901415051094336D4
S1130520510510F4558344830895FC018481958119
S1130530009729F097838683158214820895868113
S11305409781958384830895CF93DF9300D000D05F
S1130550CDB7DEB780E090E018C0AC014F5F5F4FCD
S11305609A0122953295307F3227207F32272150FD
S11305703E4F82959295907F9827807F9827FC0123
S1130580E150FE4F31832083CA018E3091052CF354
S11305901092E0021092DF0280E090E015C0AC01FE
S11305A04F5F5F4F6DE1649F9001659F300D112493
S11305B0265B3E4F689FF001699FF00D1124E65BB6
S11305C0FE4F31832083CA018330910544F3109296
S11305D0A2011092A1011A82198232C02DE149812F
S11305E05A81249FC001259F900D1124FC01E05BDA
S11305F0FE4FFC83EB83CF010E944B0F20E6498121
S11306005A81249FC001259F900D1124855B9C4F26
S1130610EB81FC81918B808B938B828B80E89EE0B5
S1130620968B858B8DE1849FF001859FF00D1124BD
S1130630E65BFE4F158214824F5F5F4F5A834983F6
S113064029813A81243031054CF2E2EEF1E0118245
S113065010821582148213821282E1E6F0E080E8AF
S113066080831082109285001092840084E080932D
S1130670810081E080936F000F900F900F900F9096
S1130680DF91CF910895CF93DF9300D0CDB7DEB73C
S11306909A838983809100019091010106960E94BA
S11306A04B0F892B59F489819A819093010180938E
S11306B0000161E070E006960E946B0F0F900F90AE
S11306C0DF91CF9108950F931F93CF93DF93DC01B4
S11306D0CB01EB01E881F981C0E0D0E004C0EF0177
S11306E00190F081E02D309779F006811781208503
S11306F0318516964D915D916D917C9119974017B6
S11307005107620773075CF71196FC93EE932097E9
S113071021F4FC01B183A08302C0B983A883DF91D3
S1130720CF911F910F9108950F931F93CF93DF9350
S1130730DC01CB01EB01E881F981C0E0D0E004C029
S1130740EF010190F081E02D309779F0028113815F
S11307502481358112964D915D916D917C9115970F
S113076040175107620773075CF71196FC93EE93E9
S1130770209721F4FC01B183A08302C0B983A8832C
S1130780DF91CF911F910F910895DC01ED91FC91C0
S11307901197309759F48FEF8093EC008093ED001C
S11307A08093EE0081E083BF8895FCCF2081318166
S11307B02D933C93CF010895FB0120813181FC01ED
S11307C031832083FB01918380830895FB01208181
S11307D03181FC0131832083FB019183808308955F
S11307E0DC01ED91FC911197208131812D933C9393
S11307F0CF010895CF93DF93E0910201F0910301BB
S1130800C281D381E0912401F0912501309719F13F
S11308108091040190910501892BE9F0209769F0FA
S113082086819781A085B1854E815F8168857985B0
S1130830841B950BA60BB70B72F484E091E00E9425
S1130840F00362E071E00E94E6038091020190915E
S113085003010E944303DF91CF9108951F920F92E9
S11308600FB60F9211240F931F932F933F934F931F
S11308705F936F937F938F939F93AF93BF93EF9304
S1130880FF9380911C0190911D01AC01092E000C75
S1130890660B770B9A011127002740918400509131
S11308A0850060E070E0402B512B622B732B40934A
S11308B01E0150931F016093200170932101B09B8E
S11308C01AC00196092E000CAA0BBB0BBC015527BC
S11308D044278091840090918500A0E0B0E0842BAF
S11308E0952BA62BB72B80931E0190931F01A093E9
S11308F02001B0932101E091BE01F091BF01309736
S113090039F060E070E0809126019091270109950B
S11309100E94FA03FF91EF91BF91AF919F918F9144
S11309207F916F915F914F913F912F911F910F9103
S11309300F900FBE0F901F9018951F920F920FB635
S11309400F9211240F931F932F933F934F935F9311
S11309506F937F938F939F93AF93BF93EF93FF9383
S113096080911C0190911D01AC01092E000C660BB5
S1130970770B9A011127002740918400509185003C
S113098060E070E0402B512B622B732B40931E01CF
S113099050931F016093200170932101B09B1AC0F2
S11309A00196092E000CAA0BBB0BBC01552744274A
S11309B08091840090918500A0E0B0E0842B952B79
S11309C0A62BB72B80931E0190931F01A0932001A7
S11309D0B0932101E091C001F091C101309739F049
S11309E061E070E0809128019091290109950E94AD
S11309F0FA03FF91EF91BF91AF919F918F917F91F6
S1130A006F915F914F913F912F911F910F910F9093
S1130A100FBE0F901F9018951F920F920FB60F9252
S1130A2011240F931F932F933F934F935F936F93CF
S1130A307F938F939F93AF93BF93EF93FF93809193
S1130A401C0190911D01AC01092E000C660B770B63
S1130A509A0111270027409184005091850060E09D
S1130A6070E0402B512B622B732B40931E0150934B
S1130A701F016093200170932101B09B1AC001965D
S1130A80092E000CAA0BBB0BBC01552744278091EF
S1130A90840090918500A0E0B0E0842B952BA62BD8
S1130AA0B72B80931E0190931F01A0932001B09354
S1130AB02101E091C201F091C301309739F062E065
S1130AC070E080912A0190912B0109950E94FA030C
S1130AD0FF91EF91BF91AF919F918F917F916F9112
S1130AE05F914F913F912F911F910F910F900FBEE6
S1130AF00F901F9018951F920F920FB60F9211240A
S1130B000F931F932F933F934F935F936F937F9311
S1130B108F939F93AF93BF93EF93FF9380911C01A7
S1130B2090911D01AC01092E000C660B770B9A0104
S1130B3011270027409184005091850060E070E007
S1130B40402B512B622B732B40931E0150931F019A
S1130B506093200170932101B09B1AC00196092E65
S1130B60000CAA0BBB0BBC015527442780918400C1
S1130B7090918500A0E0B0E0842B952BA62BB72B99
S1130B8080931E0190931F01A0932001B093210133
S1130B90E091C401F091C501309739F063E070E051
S1130BA080912C0190912D0109950E94FA03FF91E7
S1130BB0EF91BF91AF919F918F917F916F915F91D1
S1130BC04F913F912F911F910F910F900FBE0F9056
S1130BD01F9018951F920F920FB60F9211240F9326
S1130BE01F932F933F934F935F936F937F938F93B1
S1130BF09F93AF93BF93EF93FF9380911C019091C8
S1130C001D01AC01092E000C660B770B9A0111270C
S1130C100027409184005091850060E070E0402BF3
S1130C20512B622B732B40931E0150931F01609331
S1130C30200170932101B09B1AC00196092E000C6B
S1130C40AA0BBB0BBC0155274427809184009091CB
S1130C508500A0E0B0E0842B952BA62BB72B8093C6
S1130C601E0190931F01A0932001B0932101E091F4
S1130C70C601F091C701309739F064E070E08091CB
S1130C802E0190912F0109950E94FA03FF91EF9193
S1130C90BF91AF919F918F917F916F915F914F9190
S1130CA03F912F911F910F910F900FBE0F901F90A6
S1130CB018951F920F920FB60F9211240F931F9342
S1130CC02F933F934F935F936F937F938F939F9350
S1130CD0AF93BF93EF93FF9380911C0190911D01FB
S1130CE0AC01092E000C660B770B9A011127002723
S1130CF0409184005091850060E070E0402B512BBE
S1130D00622B732B40931E0150931F0160932001AB
S1130D1070932101B09B1AC00196092E000CAA0BF6
S1130D20BB0BBC015527442780918400909185001A
S1130D30A0E0B0E0842B952BA62BB72B80931E014B
S1130D4090931F01A0932001B0932101E091C80169
S1130D50F091C901309739F065E070E0809130017D
S1130D609091310109950E94FA03FF91EF91BF918F
S1130D70AF919F918F917F916F915F914F913F912F
S1130D802F911F910F910F900FBE0F901F901895E8
S1130D901F920F920FB60F9211240F931F932F934C
S1130DA03F934F935F936F937F938F939F93AF93EF
S1130DB0BF93EF93FF9380911C0190911D01AC01AF
S1130DC0092E000C660B770B9A011127002740911E
S1130DD084005091850060E070E0402B512B622B21
S1130DE0732B40931E0150931F0160932001709355
S1130DF02101B09B1AC00196092E000CAA0BBB0B53
S1130E00BC01552744278091840090918500A0E07F
S1130E10B0E0842B952BA62BB72B80931E019093C7
S1130E201F01A0932001B0932101E091CA01F09128
S1130E30CB01309739F066E070E0809132019091F7
S1130E40330109950E94FA03FF91EF91BF91AF918D
S1130E509F918F917F916F915F914F913F912F91CE
S1130E601F910F910F900FBE0F901F9018951F9216
S1130E700F920FB60F9211240F931F932F933F934A
S1130E804F935F936F937F938F939F93AF93BF938E
S1130E90EF93FF9380911C0190911D01AC01092EE9
S1130EA0000C660B770B9A011127002740918400F0
S1130EB05091850060E070E0402B512B622B732B26
S1130EC040931E0150931F016093200170932101F0
S1130ED0B09B1AC00196092E000CAA0BBB0BBC01D7
S1130EE0552744278091840090918500A0E0B0E0CC
S1130EF0842B952BA62BB72B80931E0190931F0157
S1130F00A0932001B0932101E091CC01F091CD0197
S1130F10309739F067E070E08091340190913501A9
S1130F2009950E94FA03FF91EF91BF91AF919F91B0
S1130F308F917F916F915F914F913F912F911F916D
S1130F400F910F900FBE0F901F9018951F920F9244
S1130F500FB60F9211240F931F932F933F934F9328
S1130F605F936F937F938F939F93AF93BF93EF930D
S1130F70FF9380911C0190911D01AC01092E000C7E
S1130F80660B770B9A01112700274091840050913A
S1130F90850060E070E0402B512B622B732B409353
S1130FA01E0150931F016093200170932101B09B97
S1130FB01AC00196092E000CAA0BBB0BBC015527C5
S1130FC044278091840090918500A0E0B0E0842BB8
S1130FD0952BA62BB72B80931E0190931F01A093F2
S1130FE02001B0932101E091CE01F091CF0130971F
S1130FF039F068E070E080913601909137010995ED
S11310000E94FA03FF91EF91BF91AF919F918F914D
S11310107F916F915F914F913F912F911F910F910C
S11310200F900FBE0F901F9018951F920F920FB63E
S11310300F9211240F931F932F933F934F935F931A
S11310406F937F938F939F93AF93BF93EF93FF938C
S113105080911C0190911D01AC01092E000C660BBE
S1131060770B9A0111270027409184005091850045
S113107060E070E0402B512B622B732B40931E01D8
S113108050931F016093200170932101B09B1AC0FB
S11310900196092E000CAA0BBB0BBC015527442753
S11310A08091840090918500A0E0B0E0842B952B82
S11310B0A62BB72B80931E0190931F01A0932001B0
S11310C0B0932101E091D001F091D101309739F032
S11310D069E070E0809138019091390109950E948E
S11310E0FA03FF91EF91BF91AF919F918F917F91FF
S11310F06F915F914F913F912F911F910F910F909D
S11311000FBE0F901F9018951F920F920FB60F925B
S113111011240F931F932F933F934F935F936F93D8
S11311207F938F939F93AF93BF93EF93FF9380919C
S11311301C0190911D01AC01092E000C660B770B6C
S11311409A0111270027409184005091850060E0A6
S113115070E0402B512B622B732B40931E01509354
S11311601F016093200170932101B09B1AC0019666
S1131170092E000CAA0BBB0BBC01552744278091F8
S1131180840090918500A0E0B0E0842B952BA62BE1
S1131190B72B80931E0190931F01A0932001B0935D
S11311A02101E091D201F091D301309739F06AE046
S11311B070E080913A0190913B0109950E94FA03F5
S11311C0FF91EF91BF91AF919F918F917F916F911B
S11311D05F914F913F912F911F910F910F900FBEEF
S11311E00F901F9018951F920F920FB60F92112413
S11311F00F931F932F933F934F935F936F937F931B
S11312008F939F93AF93BF93EF93FF9380911C01B0
S113121090911D01AC01092E000C660B770B9A010D
S113122011270027409184005091850060E070E010
S1131230402B512B622B732B40931E0150931F01A3
S11312406093200170932101B09B1AC00196092E6E
S1131250000CAA0BBB0BBC015527442780918400CA
S113126090918500A0E0B0E0842B952BA62BB72BA2
S113127080931E0190931F01A0932001B09321013C
S1131280E091D401F091D501309739F06BE070E032
S113129080913C0190913D0109950E94FA03FF91D0
S11312A0EF91BF91AF919F918F917F916F915F91DA
S11312B04F913F912F911F910F910F900FBE0F905F
S11312C01F9018951F920F920FB60F9211240F932F
S11312D01F932F933F934F935F936F937F938F93BA
S11312E09F93AF93BF93EF93FF9380911C019091D1
S11312F01D01AC01092E000C660B770B9A01112716
S11313000027409184005091850060E070E0402BFC
S1131310512B622B732B40931E0150931F0160933A
S1131320200170932101B09B1AC00196092E000C74
S1131330AA0BBB0BBC0155274427809184009091D4
S11313408500A0E0B0E0842B952BA62BB72B8093CF
S11313501E0190931F01A0932001B0932101E091FD
S1131360D601F091D701309739F06CE070E08091AC
S11313703E0190913F0109950E94FA03FF91EF917C
S1131380BF91AF919F918F917F916F915F914F9199
S11313903F912F911F910F910F900FBE0F901F90AF
S11313A018951F920F920FB60F9211240F931F934B
S11313B02F933F934F935F936F937F938F939F9359
S11313C0AF93BF93EF93FF9380911C0190911D0104
S11313D0AC01092E000C660B770B9A01112700272C
S11313E0409184005091850060E070E0402B512BC7
S11313F0622B732B40931E0150931F0160932001B5
S113140070932101B09B1AC00196092E000CAA0BFF
S1131410BB0BBC0155274427809184009091850023
S1131420A0E0B0E0842B952BA62BB72B80931E0154
S113143090931F01A0932001B0932101E091D80162
S1131440F091D901309739F06DE070E0809140015E
S11314509091410109950E94FA03FF91EF91BF9188
S1131460AF919F918F917F916F915F914F913F9138
S11314702F911F910F910F900FBE0F901F901895F1
S11314801F920F920FB60F9211240F931F932F9355
S11314903F934F935F936F937F938F939F93AF93F8
S11314A0BF93EF93FF9380911C0190911D01AC01B8
S11314B0092E000C660B770B9A0111270027409127
S11314C084005091850060E070E0402B512B622B2A
S11314D0732B40931E0150931F016093200170935E
S11314E02101B09B1AC00196092E000CAA0BBB0B5C
S11314F0BC01552744278091840090918500A0E089
S1131500B0E0842B952BA62BB72B80931E019093D0
S11315101F01A0932001B0932101E091DA01F09121
S1131520DB01309739F06EE070E0809142019091D8
S1131530430109950E94FA03FF91EF91BF91AF9186
S11315409F918F917F916F915F914F913F912F91D7
S11315501F910F910F900FBE0F901F9018951F921F
S11315600F920FB60F9211240F931F932F933F9353
S11315704F935F936F937F938F939F93AF93BF9397
S1131580EF93FF9380911C0190911D01AC01092EF2
S1131590000C660B770B9A011127002740918400F9
S11315A05091850060E070E0402B512B622B732B2F
S11315B040931E0150931F016093200170932101F9
S11315C0B09B1AC00196092E000CAA0BBB0BBC01E0
S11315D0552744278091840090918500A0E0B0E0D5
S11315E0842B952BA62BB72B80931E0190931F0160
S11315F0A0932001B0932101E091DC01F091DD0181
S1131600309739F06FE070E080914401909145018A
S113161009950E94FA03FF91EF91BF91AF919F91B9
S11316208F917F916F915F914F913F912F911F9176
S11316300F910F900FBE0F901F9018951F920F924D
S11316400FB60F9211240F931F932F933F934F9331
S11316505F936F937F938F939F93AF93BF93EF9316
S1131660FF9380911C0190911D01AC01092E000C87
S1131670660B770B9A011127002740918400509143
S1131680850060E070E0402B512B622B732B40935C
S11316901E0150931F016093200170932101B09BA0
S11316A01AC00196092E000CAA0BBB0BBC015527CE
S11316B044278091840090918500A0E0B0E0842BC1
S11316C0952BA62BB72B80931E0190931F01A093FB
S11316D02001B0932101E091DE01F091DF01309708
S11316E039F060E170E080914601909147010995DD
S11316F00E94FA03FF91EF91BF91AF919F918F9157
S11317007F916F915F914F913F912F911F910F9115
S11317100F900FBE0F901F9018951F920F920FB647
S11317200F9211240F931F932F933F934F935F9323
S11317306F937F938F939F93AF93BF93EF93FF9395
S113174080911C0190911D01AC01092E000C660BC7
S1131750770B9A011127002740918400509185004E
S113176060E070E0402B512B622B732B40931E01E1
S113177050931F016093200170932101B09B1AC004
S11317800196092E000CAA0BBB0BBC01552744275C
S11317908091840090918500A0E0B0E0842B952B8B
S11317A0A62BB72B80931E0190931F01A0932001B9
S11317B0B0932101E091E001F091E101309739F01B
S11317C061E170E0809148019091490109950E947E
S11317D0FA03FF91EF91BF91AF919F918F917F9108
S11317E06F915F914F913F912F911F910F910F90A6
S11317F00FBE0F901F9018950E94FA03789481E011
S113180083BF8895FCCF1F920F920FB60F921124BD
S11318102F933F934F935F936F937F938F939F93F4
S1131820EF93FF9380911C0190911D010196909379
S11318301D0180931C01E0912201F0912301309756
S113184001F1428153816481758186179707C9F438
S1131850CA012091840030918500421B530B413012
S1131860510529F48091840090918500019690930C
S1131870890080938800EFE6F0E0808182608083B5
S113188005C0EFE6F0E080818D7F8083FF91EF91CA
S11318909F918F917F916F915F914F913F912F9184
S11318A00F900FBE0F901F9018951F920F920FB6B6
S11318B00F921124CF92DF92EF92FF922F933F93D6
S11318C04F935F936F937F938F939F93AF93BF9344
S11318D0EF93FF9380911C0190911D016C01092EDF
S11318E0000CEE08FF087601DD24CC24409184002E
S11318F05091850060E070E0C42AD52AE62AF72AD0
S1131900B09B1EC06C012FEFC21AD20A0D2C000C22
S1131910EE08FF08D60199278827C0908400D0904C
S11319208500E12CF12CC82AD92AEA2AFB2A08C00E
S113193082E291E00E94C50364E271E00E946303C5
S1131940E0912201F0912301309769F08281938123
S1131950A481B5818C199D09AE09BF091816190611
S11319601A061B062CF7309721F182819381A481FA
S1131970B58120911C0130911D012A173B07C9F440
S11319809C014091840050918500841B950B019724
S113199031F420918400309185002F5F3F4F3093C4
S11319A0890020938800EFE6F0E0808182608083E4
S11319B005C0EFE6F0E080818D7F80830E94FA030A
S11319C0FF91EF91BF91AF919F918F917F916F9113
S11319D05F914F913F912F91FF90EF90DF90CF90C7
S11319E00F900FBE0F901F9018953F924F925F92E9
S11319F06F927F928F929F92AF92BF92CF92DF921B
S1131A00EF92FF920F931F93CF93DF932B013C012F
S1131A1049015A018FB78078382EF89486E091E016
S1131A200E94C503EC011B870A87FD86EC86DF86CE
S1131A30CE86332061F0E0910001F0910101028033
S1131A40F381E02D82819381A481B58108C08091C6
S1131A501E0190911F01A0912001B0912101480E17
S1131A60591E6A1E7B1E4A825B826C827D82181418
S1131A7019041A041B0444F00F2E88248A94982C09
S1131A80A82CFFE7BF2EF02D840C951CA61CB71CB8
S1131A908E829F82A886B98620911C0130911D01F7
S1131AA0C901032E000CAA0BBB0BDC019927882764
S1131AB0409184005091850060E070E0842B952B68
S1131AC0A62BB72BB09B13C0C9010196092E000C9D
S1131AD0AA0BBB0BDC019927882740918400509105
S1131AE0850060E070E0842B952BA62BB72B481A59
S1131AF0590A6A0A7B0A1414150416041704ACF56F
S1131B0062E271E0CE010E949403E0912201F0911F
S1131B102301309721F182819381A481B5812091A1
S1131B201C0130911D012A173B07C9F49C01409107
S1131B30840050918500841B950B019731F420910A
S1131B408400309185002F5F3F4F309389002093AC
S1131B508800EFE6F0E080818260808339C0EFE6A0
S1131B60F0E080818D7F808333C064E271E0CE0138
S1131B700E946303332061F1809104019091050177
S1131B80892B31F1E0912401F0912501868197811F
S1131B90A085B185E0910201F09103010280F381F7
S1131BA0E02D4681578160857185841B950BA60BBA
S1131BB0B70B72F484E091E00E94F00362E071E0FC
S1131BC00E94E60380910201909103010E94430365
S1131BD0332009F07894CE01DF91CF911F910F91BA
S1131BE0FF90EF90DF90CF90BF90AF909F908F9039
S1131BF07F906F905F904F903F900895CF92DF92C7
S1131C00EF92FF920F931F93CF93DF93EC017B012D
S1131C106A011FB71078F894A881B981109719F454
S1131C2035C0A081B1811496ED91FC911597309740
S1131C30C1F72091000130910101A217B30711F0FF
S1131C40111107C0112309F44AC078948FEF9FEF54
S1131C504EC08A819B81009719F0FC011582148281
S1131C603B832A83F901D583C483CD010E944303B6
S1131C70E0910001F091010182819381892B31F47B
S1131C80112381F1789480E090E031C080910001CB
S1131C909091010199838883112329F08A819B8182
S1131CA0019709F07894B601CE01F7010995F82E51
S1131CB0092F8FB7F894198218828A819B81823008
S1131CC0910538F01B821A82FC01158214820E944D
S1131CD04303112351F078948F2D902F08C08FEF78
S1131CE09FEF05C080E090E002C08F2D902FDF9120
S1131CF0CF911F910F91FF90EF90DF90CF900895B7
S1131D00009100011091010184E291E00E94C50359
S1131D10EC01F8019383828378946C857D854E85EC
S1131D205F858A859B850E94FE0D8FB7F89466E0D7
S1131D3071E0CE010E94DC03E0910201F091030105
S1131D400190F081E02DC281D381E0912401F091D2
S1131D5025013097A1F0209799F286819781A0857B
S1131D60B1854E815F8168857985841B950BA60BAF
S1131D70B70B181619061A061B060CF0C1CF82E021
S1131D8091E00E94F00364E071E00E94E603A091F8
S1131D900201B091030102C0A081B1811496ED91BA
S1131DA0FC9115973097C1F7CD010E944303A8CF4A
S1131DB0FC014231B8F49FB79078F89450E0440F96
S1131DC0551FDA01AA5DBE4FED93FC93DA01A254CC
S1131DD0BE4F6D937C9321E030E0338322839923BB
S1131DE009F0789408958C017B016A018FB7F89407
S1131DF00E94A4027894E114F10441F020E030E060
S1131E00A90160E070E0CB010E94F50C8FB7F89453
S1131E100E94FC0B052E97FB1EF400940E94210FD8
S1131E2057FD07D00E94290F07FC03D04EF40C94F1
S1131E30210F50954095309521953F4F4F4F5F4F5F
S1131E40089590958095709561957F4F8F4F9F4F22
S1131E500895A1E21A2EAA1BBB1BFD010DC0AA1FE7
S1131E60BB1FEE1FFF1FA217B307E407F50720F0FF
S1131E70A21BB30BE40BF50B661F771F881F991F7A
S1131E801A9469F760957095809590959B01AC01C3
S1131E90BD01CF010895DC012D923D924D925D92DA
S1131EA06D927D928D929D92AD92BD92CD92DD9276
S1131EB0ED92FD920D931D93CD93DD93FF91EF91E0
S1131EC08DB78D938EB78D938FB78D93ED93FD93CF
S1131ED0882799270994DC01CB0181309105811D64
S1131EE02D903D904D905D906D907D908D909D9046
S1131EF0AD90BD90CD90DD90ED90FD900D911D9134
S1131F00CD91DD91ED91FD910D90F894FEBF0FBE42
S10F1F10EDBFED91FD910994F894FFCF12
S1131F1CE201E2014A01FF0151151001111E111BCE
S10F1F2C500B411B411F1101511F510BB0
S9030000FC
