S00E00004C61626220342E7372656351
S11300000C942E000C9442020C94B1020C94200324
S11300100C948F030C94FE030C944B000C94620A12
S11300200C944B000C94100A0C946D040C94DC0496
S11300300C944B050C94BA050C9429060C94980660
S11300400C9407070C9476070C94E5070C94540859
S11300500C94C3080C9432090C94A10911241FBEFA
S1130060CFEFD4E0DEBFCDBF11E0A0E0B1E0ECE023
S1130070F7E102C005900D92AA31B107D9F724E047
S1130080AAE1B1E001C01D92AD36B207E1F70E94CA
S113009088010C94840B0C940000CF93DF93CDB7AC
S11300A0DEB764970FB6F894DEBF0FBECDBF94E100
S11300B0E6E0F1E0DE01119601900D929A95E1F7E8
S11300C06630710508F046C0FB0177230CF43196C5
S11300D0F595E795E451FF4FA82FB0E0D097AA0F0C
S11300E0BB1F81E090E08C0F9D1FA80FB91F0D90DE
S11300F0BC91A02D40E050E02AC0CD018F7099271B
S11301009B0121703078332334F4215031092E6F50
S11301103F6F2F5F3F4F2130310551F48295929507
S1130120907F9827807F982720812F70208303C099
S11301302081207F20839081892B80833596B295FE
S1130140A295AF70AB27BF70AB274F5F5F4F4430B2
S113015051059CF264960FB6F894DEBF0FBECDBF76
S1130160DF91CF9108958F929F92AF92BF92CF92D9
S1130170DF92EF92FF92CF93DF934B015C01EA0190
S113018024E630E040E050E00E94020B0F2EFAE03B
S1130190CF2ED12CE12CF12CF02DA70196010E9439
S11301A0020BBE0180E3820F0E944D002196C5011F
S11301B0B401A70196010E94020B862FBE01805D47
S11301C00E944D00DF91CF91FF90EF90DF90CF9090
S11301D0BF90AF909F908F900895CF93DF9300D0FE
S11301E0CDB7DEB781E08093F4001092F90081E08E
S11301F090E09A83898320E026C08CB18695869509
S113020061F421110AC08091F900813031F4109217
S1130210F9008093F40021E016C08CB18695869590
S113022061F421110AC08091F400813031F480938B
S1130230F9001092F40021E006C08CB186958695F1
S1130240813009F420E089819A81892BB1F60F90DD
S11302500F90DF91CF91089587EB8093E50087E0BD
S11302608093E6008FE08093E70080EC8093E400C5
S113027084B1806D84B98DB18C608DB98DB3806C7F
S11302808DBBECE6F0E080818064808385B180647E
S113029085B980818068808385B1806885B9ABE643
S11302A0B0E08C9188608C938EB188608EB98C910B
S11302B084608C938EB184608EB9808180618083E8
S11302C085B1806185B9ECEEF0E080818979806246
S11302D0808340E350E060E070E0CB010E94B30013
S11302E041E350E060E070E0CB010E94B30044E3DE
S11302F050E060E070E0CB010E94B30045E350E0C1
S113030060E070E0CB010E94B3000E94ED0008950C
S1130310E1E6F0E080E8808310820E942C0180E016
S113032090E00895CF93DF9300D0CDB7DEB79A83E2
S11303308983809100019091010106960E94430BEC
S1130340892B59F489819A8190930101809300014A
S113035061E070E006960E94630B0F900F90DF91AE
S1130360CF9108950F931F93CF93DF93DC01CB01BB
S1130370EB01E881F981C0E0D0E004C0EF01019015
S1130380F081E02D309779F0068117812085318541
S113039016964D915D916D917C9119974017510777
S11303A0620773075CF71196FC93EE93209721F490
S11303B0FC01B183A08302C0B983A883DF91CF91EC
S11303C01F910F910895DC01ED91FC9111973097E5
S11303D059F48FEF8093EC008093ED008093EE004E
S11303E081E083BF8895FCCF208131812D933C939C
S11303F0CF010895FB0120813181FC0131832083E9
S1130400FB01918380830895DC01ED91FC911197A8
S1130410208131812D933C93CF010895CF93DF93B5
S1130420E0910201F0910301C281D381E0912201A4
S1130430F0912301309719F1809104019091050105
S1130440892BE9F0209769F086819781A085B18591
S11304504E815F8168857985841B950BA60BB70B4C
S113046072F484E091E00E94040262E071E00E9470
S1130470FA0180910201909103010E949201DF919F
S1130480CF9108951F920F920FB60F9211240F93DC
S11304901F932F933F934F935F936F937F938F9308
S11304A09F93AF93BF93EF93FF9380911A01909121
S11304B01B01AC01092E000C660B770B9A01112766
S11304C00027409184005091850060E070E0402B4B
S11304D0512B622B732B40931C0150931D0160938D
S11304E01E0170931F01B09B1AC00196092E000CC7
S11304F0AA0BBB0BBC015527442780918400909123
S11305008500A0E0B0E0842B952BA62BB72B80931D
S11305101C0190931D01A0931E01B0931F01E09153
S1130520BC01F091BD01309739F060E070E080913A
S113053024019091250109950E940E02FF91EF91EB
S1130540BF91AF919F918F917F916F915F914F91E7
S11305503F912F911F910F910F900FBE0F901F90FD
S113056018951F920F920FB60F9211240F931F9399
S11305702F933F934F935F936F937F938F939F93A7
S1130580AF93BF93EF93FF9380911A0190911B0156
S1130590AC01092E000C660B770B9A01112700277A
S11305A0409184005091850060E070E0402B512B15
S11305B0622B732B40931C0150931D0160931E0109
S11305C070931F01B09B1AC00196092E000CAA0B50
S11305D0BB0BBC0155274427809184009091850072
S11305E0A0E0B0E0842B952BA62BB72B80931C01A5
S11305F090931D01A0931E01B0931F01E091BE01D1
S1130600F091BF01309739F061E070E080912601EC
S11306109091270109950E940E02FF91EF91BF91DD
S1130620AF919F918F917F916F915F914F913F9186
S11306302F911F910F910F900FBE0F901F9018953F
S11306401F920F920FB60F9211240F931F932F93A3
S11306503F934F935F936F937F938F939F93AF9346
S1130660BF93EF93FF9380911A0190911B01AC010A
S1130670092E000C660B770B9A0111270027409175
S113068084005091850060E070E0402B512B622B78
S1130690732B40931C0150931D0160931E017093B2
S11306A01F01B09B1AC00196092E000CAA0BBB0BAC
S11306B0BC01552744278091840090918500A0E0D7
S11306C0B0E0842B952BA62BB72B80931C01909321
S11306D01D01A0931E01B0931F01E091C001F09190
S11306E0C101309739F062E070E080912801909167
S11306F0290109950E940E02FF91EF91BF91AF91DC
S11307009F918F917F916F915F914F913F912F9125
S11307101F910F910F900FBE0F901F9018951F926D
S11307200F920FB60F9211240F931F932F933F93A1
S11307304F935F936F937F938F939F93AF93BF93E5
S1130740EF93FF9380911A0190911B01AC01092E44
S1130750000C660B770B9A01112700274091840047
S11307605091850060E070E0402B512B622B732B7D
S113077040931C0150931D0160931E0170931F014F
S1130780B09B1AC00196092E000CAA0BBB0BBC012E
S1130790552744278091840090918500A0E0B0E023
S11307A0842B952BA62BB72B80931C0190931D01B2
S11307B0A0931E01B0931F01E091C201F091C30107
S11307C0309739F063E070E080912A0190912B0119
S11307D009950E940E02FF91EF91BF91AF919F91F5
S11307E08F917F916F915F914F913F912F911F91C5
S11307F00F910F900FBE0F901F9018951F920F929C
S11308000FB60F9211240F931F932F933F934F937F
S11308105F936F937F938F939F93AF93BF93EF9364
S1130820FF9380911A0190911B01AC01092E000CD9
S1130830660B770B9A011127002740918400509191
S1130840850060E070E0402B512B622B732B4093AA
S11308501C0150931D0160931E0170931F01B09BF6
S11308601AC00196092E000CAA0BBB0BBC0155271C
S113087044278091840090918500A0E0B0E0842B0F
S1130880952BA62BB72B80931C0190931D01A0934D
S11308901E01B0931F01E091C401F091C50130978E
S11308A039F064E070E080912C0190912D0109955C
S11308B00E940E02FF91EF91BF91AF919F918F9192
S11308C07F916F915F914F913F912F911F910F9164
S11308D00F900FBE0F901F9018951F920F920FB696
S11308E00F9211240F931F932F933F934F935F9372
S11308F06F937F938F939F93AF93BF93EF93FF93E4
S113090080911A0190911B01AC01092E000C660B19
S1130910770B9A011127002740918400509185009C
S113092060E070E0402B512B622B732B40931C0131
S113093050931D0160931E0170931F01B09B1AC058
S11309400196092E000CAA0BBB0BBC0155274427AA
S11309508091840090918500A0E0B0E0842B952BD9
S1130960A62BB72B80931C0190931D01A0931E010D
S1130970B0931F01E091C601F091C701309739F09F
S113098065E070E080912E0190912F0109950E94FD
S11309900E02FF91EF91BF91AF919F918F917F9143
S11309A06F915F914F913F912F911F910F910F90F4
S11309B00FBE0F901F9018951F920F920FB60F92B3
S11309C011240F931F932F933F934F935F936F9330
S11309D07F938F939F93AF93BF93EF93FF938091F4
S11309E01A0190911B01AC01092E000C660B770BC8
S11309F09A0111270027409184005091850060E0FE
S1130A0070E0402B512B622B732B40931C015093AD
S1130A101D0160931E0170931F01B09B1AC00196C3
S1130A20092E000CAA0BBB0BBC015527442780914F
S1130A30840090918500A0E0B0E0842B952BA62B38
S1130A40B72B80931C0190931D01A0931E01B093BA
S1130A501F01E091C801F091C901309739F066E0B7
S1130A6070E0809130019091310109950E940E024D
S1130A70FF91EF91BF91AF919F918F917F916F9172
S1130A805F914F913F912F911F910F910F900FBE46
S1130A900F901F9018951F920F920FB60F9211246A
S1130AA00F931F932F933F934F935F936F937F9372
S1130AB08F939F93AF93BF93EF93FF9380911A010A
S1130AC090911B01AC01092E000C660B770B9A0167
S1130AD011270027409184005091850060E070E068
S1130AE0402B512B622B732B40931C0150931D01FF
S1130AF060931E0170931F01B09B1AC00196092ECA
S1130B00000CAA0BBB0BBC01552744278091840021
S1130B1090918500A0E0B0E0842B952BA62BB72BF9
S1130B2080931C0190931D01A0931E01B0931F019B
S1130B30E091CA01F091CB01309739F067E070E0A1
S1130B40809132019091330109950E940E02FF9128
S1130B50EF91BF91AF919F918F917F916F915F9131
S1130B604F913F912F911F910F910F900FBE0F90B6
S1130B701F9018951F920F920FB60F9211240F9386
S1130B801F932F933F934F935F936F937F938F9311
S1130B909F93AF93BF93EF93FF9380911A0190912A
S1130BA01B01AC01092E000C660B770B9A0111276F
S1130BB00027409184005091850060E070E0402B54
S1130BC0512B622B732B40931C0150931D01609396
S1130BD01E0170931F01B09B1AC00196092E000CD0
S1130BE0AA0BBB0BBC01552744278091840090912C
S1130BF08500A0E0B0E0842B952BA62BB72B809327
S1130C001C0190931D01A0931E01B0931F01E0915C
S1130C10CC01F091CD01309739F068E070E080911B
S1130C2034019091350109950E940E02FF91EF91D4
S1130C30BF91AF919F918F917F916F915F914F91F0
S1130C403F912F911F910F910F900FBE0F901F9006
S1130C5018951F920F920FB60F9211240F931F93A2
S1130C602F933F934F935F936F937F938F939F93B0
S1130C70AF93BF93EF93FF9380911A0190911B015F
S1130C80AC01092E000C660B770B9A011127002783
S1130C90409184005091850060E070E0402B512B1E
S1130CA0622B732B40931C0150931D0160931E0112
S1130CB070931F01B09B1AC00196092E000CAA0B59
S1130CC0BB0BBC015527442780918400909185007B
S1130CD0A0E0B0E0842B952BA62BB72B80931C01AE
S1130CE090931D01A0931E01B0931F01E091CE01CA
S1130CF0F091CF01309739F069E070E080913601CE
S1130D009091370109950E940E02FF91EF91BF91D6
S1130D10AF919F918F917F916F915F914F913F918F
S1130D202F911F910F910F900FBE0F901F90189548
S1130D301F920F920FB60F9211240F931F932F93AC
S1130D403F934F935F936F937F938F939F93AF934F
S1130D50BF93EF93FF9380911A0190911B01AC0113
S1130D60092E000C660B770B9A011127002740917E
S1130D7084005091850060E070E0402B512B622B81
S1130D80732B40931C0150931D0160931E017093BB
S1130D901F01B09B1AC00196092E000CAA0BBB0BB5
S1130DA0BC01552744278091840090918500A0E0E0
S1130DB0B0E0842B952BA62BB72B80931C0190932A
S1130DC01D01A0931E01B0931F01E091D001F09189
S1130DD0D101309739F06AE070E080913801909148
S1130DE0390109950E940E02FF91EF91BF91AF91D5
S1130DF09F918F917F916F915F914F913F912F912F
S1130E001F910F910F900FBE0F901F9018951F9276
S1130E100F920FB60F9211240F931F932F933F93AA
S1130E204F935F936F937F938F939F93AF93BF93EE
S1130E30EF93FF9380911A0190911B01AC01092E4D
S1130E40000C660B770B9A01112700274091840050
S1130E505091850060E070E0402B512B622B732B86
S1130E6040931C0150931D0160931E0170931F0158
S1130E70B09B1AC00196092E000CAA0BBB0BBC0137
S1130E80552744278091840090918500A0E0B0E02C
S1130E90842B952BA62BB72B80931C0190931D01BB
S1130EA0A0931E01B0931F01E091D201F091D301F0
S1130EB0309739F06BE070E080913A0190913B01FA
S1130EC009950E940E02FF91EF91BF91AF919F91FE
S1130ED08F917F916F915F914F913F912F911F91CE
S1130EE00F910F900FBE0F901F9018951F920F92A5
S1130EF00FB60F9211240F931F932F933F934F9389
S1130F005F936F937F938F939F93AF93BF93EF936D
S1130F10FF9380911A0190911B01AC01092E000CE2
S1130F20660B770B9A01112700274091840050919A
S1130F30850060E070E0402B512B622B732B4093B3
S1130F401C0150931D0160931E0170931F01B09BFF
S1130F501AC00196092E000CAA0BBB0BBC01552725
S1130F6044278091840090918500A0E0B0E0842B18
S1130F70952BA62BB72B80931C0190931D01A09356
S1130F801E01B0931F01E091D401F091D501309777
S1130F9039F06CE070E080913C0190913D0109953D
S1130FA00E940E02FF91EF91BF91AF919F918F919B
S1130FB07F916F915F914F913F912F911F910F916D
S1130FC00F900FBE0F901F9018951F920F920FB69F
S1130FD00F9211240F931F932F933F934F935F937B
S1130FE06F937F938F939F93AF93BF93EF93FF93ED
S1130FF080911A0190911B01AC01092E000C660B23
S1131000770B9A01112700274091840050918500A5
S113101060E070E0402B512B622B732B40931C013A
S113102050931D0160931E0170931F01B09B1AC061
S11310300196092E000CAA0BBB0BBC0155274427B3
S11310408091840090918500A0E0B0E0842B952BE2
S1131050A62BB72B80931C0190931D01A0931E0116
S1131060B0931F01E091D601F091D701309739F088
S11310706DE070E080913E0190913F0109950E94DE
S11310800E02FF91EF91BF91AF919F918F917F914C
S11310906F915F914F913F912F911F910F910F90FD
S11310A00FBE0F901F9018951F920F920FB60F92BC
S11310B011240F931F932F933F934F935F936F9339
S11310C07F938F939F93AF93BF93EF93FF938091FD
S11310D01A0190911B01AC01092E000C660B770BD1
S11310E09A0111270027409184005091850060E007
S11310F070E0402B512B622B732B40931C015093B7
S11311001D0160931E0170931F01B09B1AC00196CC
S1131110092E000CAA0BBB0BBC0155274427809158
S1131120840090918500A0E0B0E0842B952BA62B41
S1131130B72B80931C0190931D01A0931E01B093C3
S11311401F01E091D801F091D901309739F06EE098
S113115070E0809140019091410109950E940E0236
S1131160FF91EF91BF91AF919F918F917F916F917B
S11311705F914F913F912F911F910F910F900FBE4F
S11311800F901F9018951F920F920FB60F92112473
S11311900F931F932F933F934F935F936F937F937B
S11311A08F939F93AF93BF93EF93FF9380911A0113
S11311B090911B01AC01092E000C660B770B9A0170
S11311C011270027409184005091850060E070E071
S11311D0402B512B622B732B40931C0150931D0108
S11311E060931E0170931F01B09B1AC00196092ED3
S11311F0000CAA0BBB0BBC0155274427809184002B
S113120090918500A0E0B0E0842B952BA62BB72B02
S113121080931C0190931D01A0931E01B0931F01A4
S1131220E091DA01F091DB01309739F06FE070E082
S1131230809142019091430109950E940E02FF9111
S1131240EF91BF91AF919F918F917F916F915F913A
S11312504F913F912F911F910F910F900FBE0F90BF
S11312601F9018951F920F920FB60F9211240F938F
S11312701F932F933F934F935F936F937F938F931A
S11312809F93AF93BF93EF93FF9380911A01909133
S11312901B01AC01092E000C660B770B9A01112778
S11312A00027409184005091850060E070E0402B5D
S11312B0512B622B732B40931C0150931D0160939F
S11312C01E0170931F01B09B1AC00196092E000CD9
S11312D0AA0BBB0BBC015527442780918400909135
S11312E08500A0E0B0E0842B952BA62BB72B809330
S11312F01C0190931D01A0931E01B0931F01E09166
S1131300DC01F091DD01309739F060E170E080910B
S113131044019091450109950E940E02FF91EF91BD
S1131320BF91AF919F918F917F916F915F914F91F9
S11313303F912F911F910F910F900FBE0F901F900F
S113134018951F920F920FB60F9211240F931F93AB
S11313502F933F934F935F936F937F938F939F93B9
S1131360AF93BF93EF93FF9380911A0190911B0168
S1131370AC01092E000C660B770B9A01112700278C
S1131380409184005091850060E070E0402B512B27
S1131390622B732B40931C0150931D0160931E011B
S11313A070931F01B09B1AC00196092E000CAA0B62
S11313B0BB0BBC0155274427809184009091850084
S11313C0A0E0B0E0842B952BA62BB72B80931C01B7
S11313D090931D01A0931E01B0931F01E091DE01C3
S11313E0F091DF01309739F061E170E080914601BE
S11313F09091470109950E940E02FF91EF91BF91D0
S1131400AF919F918F917F916F915F914F913F9198
S11314102F911F910F910F900FBE0F901F90189551
S11314201F920F920FB60F9211242F933F934F9355
S11314305F936F937F938F939F93EF93FF93809129
S11314401A0190911B01019690931B0180931A013C
S1131450E0912001F0912101309701F14281538103
S11314606481758186179707C9F4CA0120918400A5
S113147030918500421B530B4130510529F4809172
S11314808400909185000196909389008093880050
S1131490EFE6F0E080818260808305C0EFE6F0E053
S11314A080818D7F8083FF91EF919F918F917F91B8
S11314B06F915F914F913F912F910F900FBE0F90BD
S11314C01F9018951F920F920FB60F921124CF926E
S11314D0DF92EF92FF922F933F934F935F936F931B
S11314E07F938F939F93AF93BF93EF93FF938091D9
S11314F01A0190911B016C01092E000CEE08FF08E3
S11315007601DD24CC24409184005091850060E074
S113151070E0C42AD52AE62AF72AB09B1EC06C01C3
S11315202FEFC21AD20A0D2C000CEE08FF08D601C8
S113153099278827C0908400D0908500E12CF12C55
S1131540C82AD92AEA2AFB2A08C080E291E00E942C
S1131550E30162E271E00E94B201E0912001F091A6
S11315602101309769F082819381A481B5818C191E
S11315709D09AE09BF09181619061A061B062CF791
S1131580309721F182819381A481B58120911A0140
S113159030911B012A173B07C9F49C014091840038
S11315A050918500841B950B019731F420918400A0
S11315B0309185002F5F3F4F30938900209388003E
S11315C0EFE6F0E080818260808305C0EFE6F0E022
S11315D080818D7F80830E940E02FF91EF91BF91E5
S11315E0AF919F918F917F916F915F914F913F91B7
S11315F02F91FF90EF90DF90CF900F900FBE0F9040
S11316001F901895052E97FB1EF400940E94190B49
S113161057FD07D00E94210B07FC03D04EF40C9415
S1131620190B50954095309521953F4F4F4F5F4F83
S1131630089590958095709561957F4F8F4F9F4F3A
S11316400895A1E21A2EAA1BBB1BFD010DC0AA1FFF
S1131650BB1FEE1FFF1FA217B307E407F50720F017
S1131660A21BB30BE40BF50B661F771F881F991F92
S11316701A9469F760957095809590959B01AC01DB
S1131680BD01CF010895DC012D923D924D925D92F2
S11316906D927D928D929D92AD92BD92CD92DD928E
S11316A0ED92FD920D931D93CD93DD93FF91EF91F8
S11316B08DB78D938EB78D938FB78D93ED93FD93E7
S11316C0882799270994DC01CB0181309105811D7C
S11316D02D903D904D905D906D907D908D909D905E
S11316E0AD90BD90CD90DD90ED90FD900D911D914C
S11316F0CD91DD91ED91FD910D90F894FEBF0FBE5B
S10F1700EDBFED91FD910994F894FFCF2A
S113170CE001E001480151151001111E111B500B91
S10D171C411B411F1101511F510B25
S9030000FC
